{
  "contractName": "CustomERC721Token",
  "abi": [
    {
      "inputs": [],
      "stateMutability": "nonpayable",
      "type": "constructor"
    },
    {
      "anonymous": false,
      "inputs": [
        {
          "indexed": true,
          "internalType": "address",
          "name": "owner",
          "type": "address"
        },
        {
          "indexed": true,
          "internalType": "address",
          "name": "approved",
          "type": "address"
        },
        {
          "indexed": true,
          "internalType": "uint256",
          "name": "tokenId",
          "type": "uint256"
        }
      ],
      "name": "Approval",
      "type": "event"
    },
    {
      "anonymous": false,
      "inputs": [
        {
          "indexed": true,
          "internalType": "address",
          "name": "owner",
          "type": "address"
        },
        {
          "indexed": true,
          "internalType": "address",
          "name": "operator",
          "type": "address"
        },
        {
          "indexed": false,
          "internalType": "bool",
          "name": "approved",
          "type": "bool"
        }
      ],
      "name": "ApprovalForAll",
      "type": "event"
    },
    {
      "anonymous": false,
      "inputs": [
        {
          "indexed": true,
          "internalType": "address",
          "name": "previousOwner",
          "type": "address"
        },
        {
          "indexed": true,
          "internalType": "address",
          "name": "newOwner",
          "type": "address"
        }
      ],
      "name": "OwnershipTransferred",
      "type": "event"
    },
    {
      "anonymous": false,
      "inputs": [
        {
          "indexed": false,
          "internalType": "address",
          "name": "from",
          "type": "address"
        }
      ],
      "name": "Paused",
      "type": "event"
    },
    {
      "anonymous": false,
      "inputs": [
        {
          "indexed": true,
          "internalType": "address",
          "name": "from",
          "type": "address"
        },
        {
          "indexed": true,
          "internalType": "address",
          "name": "to",
          "type": "address"
        },
        {
          "indexed": true,
          "internalType": "uint256",
          "name": "tokenId",
          "type": "uint256"
        }
      ],
      "name": "Transfer",
      "type": "event"
    },
    {
      "anonymous": false,
      "inputs": [
        {
          "indexed": false,
          "internalType": "address",
          "name": "from",
          "type": "address"
        }
      ],
      "name": "Unpaused",
      "type": "event"
    },
    {
      "inputs": [
        {
          "internalType": "address",
          "name": "to",
          "type": "address"
        },
        {
          "internalType": "uint256",
          "name": "tokenId",
          "type": "uint256"
        }
      ],
      "name": "approve",
      "outputs": [],
      "stateMutability": "nonpayable",
      "type": "function"
    },
    {
      "inputs": [
        {
          "internalType": "address",
          "name": "owner",
          "type": "address"
        }
      ],
      "name": "balanceOf",
      "outputs": [
        {
          "internalType": "uint256",
          "name": "",
          "type": "uint256"
        }
      ],
      "stateMutability": "view",
      "type": "function",
      "constant": true
    },
    {
      "inputs": [
        {
          "internalType": "uint256",
          "name": "tokenId",
          "type": "uint256"
        }
      ],
      "name": "getApproved",
      "outputs": [
        {
          "internalType": "address",
          "name": "",
          "type": "address"
        }
      ],
      "stateMutability": "view",
      "type": "function",
      "constant": true
    },
    {
      "inputs": [],
      "name": "getBaseTokenURI",
      "outputs": [
        {
          "internalType": "string",
          "name": "",
          "type": "string"
        }
      ],
      "stateMutability": "view",
      "type": "function",
      "constant": true
    },
    {
      "inputs": [],
      "name": "getName",
      "outputs": [
        {
          "internalType": "string",
          "name": "",
          "type": "string"
        }
      ],
      "stateMutability": "view",
      "type": "function",
      "constant": true
    },
    {
      "inputs": [],
      "name": "getSymbol",
      "outputs": [
        {
          "internalType": "string",
          "name": "",
          "type": "string"
        }
      ],
      "stateMutability": "view",
      "type": "function",
      "constant": true
    },
    {
      "inputs": [
        {
          "internalType": "address",
          "name": "owner",
          "type": "address"
        },
        {
          "internalType": "address",
          "name": "operator",
          "type": "address"
        }
      ],
      "name": "isApprovedForAll",
      "outputs": [
        {
          "internalType": "bool",
          "name": "",
          "type": "bool"
        }
      ],
      "stateMutability": "view",
      "type": "function",
      "constant": true
    },
    {
      "inputs": [],
      "name": "owner",
      "outputs": [
        {
          "internalType": "address",
          "name": "",
          "type": "address"
        }
      ],
      "stateMutability": "view",
      "type": "function",
      "constant": true
    },
    {
      "inputs": [
        {
          "internalType": "uint256",
          "name": "tokenId",
          "type": "uint256"
        }
      ],
      "name": "ownerOf",
      "outputs": [
        {
          "internalType": "address",
          "name": "",
          "type": "address"
        }
      ],
      "stateMutability": "view",
      "type": "function",
      "constant": true
    },
    {
      "inputs": [],
      "name": "pause",
      "outputs": [],
      "stateMutability": "nonpayable",
      "type": "function"
    },
    {
      "inputs": [],
      "name": "renounceOwnership",
      "outputs": [],
      "stateMutability": "nonpayable",
      "type": "function"
    },
    {
      "inputs": [
        {
          "internalType": "address",
          "name": "from",
          "type": "address"
        },
        {
          "internalType": "address",
          "name": "to",
          "type": "address"
        },
        {
          "internalType": "uint256",
          "name": "tokenId",
          "type": "uint256"
        }
      ],
      "name": "safeTransferFrom",
      "outputs": [],
      "stateMutability": "nonpayable",
      "type": "function"
    },
    {
      "inputs": [
        {
          "internalType": "address",
          "name": "from",
          "type": "address"
        },
        {
          "internalType": "address",
          "name": "to",
          "type": "address"
        },
        {
          "internalType": "uint256",
          "name": "tokenId",
          "type": "uint256"
        },
        {
          "internalType": "bytes",
          "name": "_data",
          "type": "bytes"
        }
      ],
      "name": "safeTransferFrom",
      "outputs": [],
      "stateMutability": "nonpayable",
      "type": "function"
    },
    {
      "inputs": [
        {
          "internalType": "address",
          "name": "to",
          "type": "address"
        },
        {
          "internalType": "bool",
          "name": "approved",
          "type": "bool"
        }
      ],
      "name": "setApprovalForAll",
      "outputs": [],
      "stateMutability": "nonpayable",
      "type": "function"
    },
    {
      "inputs": [
        {
          "internalType": "uint256",
          "name": "tokenId",
          "type": "uint256"
        }
      ],
      "name": "setTokenURI",
      "outputs": [],
      "stateMutability": "nonpayable",
      "type": "function"
    },
    {
      "inputs": [
        {
          "internalType": "bytes4",
          "name": "interfaceId",
          "type": "bytes4"
        }
      ],
      "name": "supportsInterface",
      "outputs": [
        {
          "internalType": "bool",
          "name": "",
          "type": "bool"
        }
      ],
      "stateMutability": "view",
      "type": "function",
      "constant": true
    },
    {
      "inputs": [
        {
          "internalType": "uint256",
          "name": "index",
          "type": "uint256"
        }
      ],
      "name": "tokenByIndex",
      "outputs": [
        {
          "internalType": "uint256",
          "name": "",
          "type": "uint256"
        }
      ],
      "stateMutability": "view",
      "type": "function",
      "constant": true
    },
    {
      "inputs": [
        {
          "internalType": "address",
          "name": "owner",
          "type": "address"
        },
        {
          "internalType": "uint256",
          "name": "index",
          "type": "uint256"
        }
      ],
      "name": "tokenOfOwnerByIndex",
      "outputs": [
        {
          "internalType": "uint256",
          "name": "",
          "type": "uint256"
        }
      ],
      "stateMutability": "view",
      "type": "function",
      "constant": true
    },
    {
      "inputs": [
        {
          "internalType": "uint256",
          "name": "tokenId",
          "type": "uint256"
        }
      ],
      "name": "tokenURI",
      "outputs": [
        {
          "internalType": "string",
          "name": "",
          "type": "string"
        }
      ],
      "stateMutability": "view",
      "type": "function",
      "constant": true
    },
    {
      "inputs": [],
      "name": "totalSupply",
      "outputs": [
        {
          "internalType": "uint256",
          "name": "",
          "type": "uint256"
        }
      ],
      "stateMutability": "view",
      "type": "function",
      "constant": true
    },
    {
      "inputs": [
        {
          "internalType": "address",
          "name": "from",
          "type": "address"
        },
        {
          "internalType": "address",
          "name": "to",
          "type": "address"
        },
        {
          "internalType": "uint256",
          "name": "tokenId",
          "type": "uint256"
        }
      ],
      "name": "transferFrom",
      "outputs": [],
      "stateMutability": "nonpayable",
      "type": "function"
    },
    {
      "inputs": [
        {
          "internalType": "address",
          "name": "newOwner",
          "type": "address"
        }
      ],
      "name": "transferOwnership",
      "outputs": [],
      "stateMutability": "nonpayable",
      "type": "function"
    },
    {
      "inputs": [],
      "name": "unpause",
      "outputs": [],
      "stateMutability": "nonpayable",
      "type": "function"
    },
    {
      "inputs": [
        {
          "internalType": "address",
          "name": "to",
          "type": "address"
        },
        {
          "internalType": "uint256",
          "name": "tokenId",
          "type": "uint256"
        }
      ],
      "name": "mint",
      "outputs": [
        {
          "internalType": "bool",
          "name": "",
          "type": "bool"
        }
      ],
      "stateMutability": "nonpayable",
      "type": "function"
    }
  ],
  "bytecode": "0x60806040523480156200001157600080fd5b506040518060400160405280601181526020017f5265616c2045737461746520546f6b656e0000000000000000000000000000008152506040518060400160405280600381526020017f52455400000000000000000000000000000000000000000000000000000000008152506040518060600160405280603f815260200162003388603f9139620000b8620000ac6200016c60201b60201c565b6200017460201b60201c565b620000d06301ffc9a760e01b6200023860201b60201c565b620000e86380ac58cd60e01b6200023860201b60201c565b6200010063780e9d6360e01b6200023860201b60201c565b82600a908051906020019062000118929190620002d7565b5081600b908051906020019062000131929190620002d7565b5080600c90805190602001906200014a929190620002d7565b5062000163635b5e139f60e01b6200023860201b60201c565b505050620003eb565b600033905090565b60008060009054906101000a900473ffffffffffffffffffffffffffffffffffffffff169050816000806101000a81548173ffffffffffffffffffffffffffffffffffffffff021916908373ffffffffffffffffffffffffffffffffffffffff1602179055508173ffffffffffffffffffffffffffffffffffffffff168173ffffffffffffffffffffffffffffffffffffffff167f8be0079c531659141344cd1fd0a4f28419497f9722a3daafe3b4186f6b6457e060405160405180910390a35050565b63ffffffff60e01b817bffffffffffffffffffffffffffffffffffffffffffffffffffffffff1916036200026b57600080fd5b6001806000837bffffffffffffffffffffffffffffffffffffffffffffffffffffffff19167bffffffffffffffffffffffffffffffffffffffffffffffffffffffff1916815260200190815260200160002060006101000a81548160ff02191690831515021790555050565b828054620002e590620003b6565b90600052602060002090601f01602090048101928262000309576000855562000355565b82601f106200032457805160ff191683800117855562000355565b8280016001018555821562000355579182015b828111156200035457825182559160200191906001019062000337565b5b50905062000364919062000368565b5090565b5b808211156200038357600081600090555060010162000369565b5090565b7f4e487b7100000000000000000000000000000000000000000000000000000000600052602260045260246000fd5b60006002820490506001821680620003cf57607f821691505b602082108103620003e557620003e462000387565b5b50919050565b612f8d80620003fb6000396000f3fe608060405234801561001057600080fd5b50600436106101585760003560e01c80636352211e116100c3578063b88d4fde1161007c578063b88d4fde146103b3578063bdc32be0146103cf578063bff26126146103ed578063c87b56dd14610409578063e985e9c514610439578063f2fde38b1461046957610158565b80636352211e1461030557806370a0823114610335578063715018a6146103655780638456cb591461036f5780638da5cb5b14610379578063a22cb4651461039757610158565b806323b872dd1161011557806323b872dd146102335780632f745c591461024f5780633f4ba83a1461027f57806340c10f191461028957806342842e0e146102b95780634f6ccce7146102d557610158565b806301ffc9a71461015d578063081812fc1461018d578063095ea7b3146101bd57806315070401146101d957806317d7de7c146101f757806318160ddd14610215575b600080fd5b61017760048036038101906101729190611f9e565b610485565b6040516101849190611fe6565b60405180910390f35b6101a760048036038101906101a29190612037565b6104ed565b6040516101b491906120a5565b60405180910390f35b6101d760048036038101906101d291906120ec565b61052a565b005b6101e16106d6565b6040516101ee91906121c5565b60405180910390f35b6101ff610768565b60405161020c91906121c5565b60405180910390f35b61021d6107fa565b60405161022a91906121f6565b60405180910390f35b61024d60048036038101906102489190612211565b610807565b005b610269600480360381019061026491906120ec565b610860565b60405161027691906121f6565b60405180910390f35b6102876108da565b005b6102a3600480360381019061029e91906120ec565b6109f8565b6040516102b09190611fe6565b60405180910390f35b6102d360048036038101906102ce9190612211565b610a93565b005b6102ef60048036038101906102ea9190612037565b610ab3565b6040516102fc91906121f6565b60405180910390f35b61031f600480360381019061031a9190612037565b610aee565b60405161032c91906120a5565b60405180910390f35b61034f600480360381019061034a9190612264565b610b2b565b60405161035c91906121f6565b60405180910390f35b61036d610b7b565b005b610377610c03565b005b610381610d29565b60405161038e91906120a5565b60405180910390f35b6103b160048036038101906103ac91906122bd565b610d52565b005b6103cd60048036038101906103c89190612432565b610ebd565b005b6103d7610ee3565b6040516103e491906121c5565b60405180910390f35b61040760048036038101906104029190612037565b610f75565b005b610423600480360381019061041e9190612037565b61108a565b60405161043091906121c5565b60405180910390f35b610453600480360381019061044e91906124b5565b611177565b6040516104609190611fe6565b60405180910390f35b610483600480360381019061047e9190612264565b61120b565b005b600060016000837bffffffffffffffffffffffffffffffffffffffffffffffffffffffff19167bffffffffffffffffffffffffffffffffffffffffffffffffffffffff1916815260200190815260200160002060009054906101000a900460ff169050919050565b60006003600083815260200190815260200160002060009054906101000a900473ffffffffffffffffffffffffffffffffffffffff169050919050565b600061053582610aee565b90508073ffffffffffffffffffffffffffffffffffffffff168373ffffffffffffffffffffffffffffffffffffffff16036105a5576040517f08c379a000000000000000000000000000000000000000000000000000000000815260040161059c90612567565b60405180910390fd5b3373ffffffffffffffffffffffffffffffffffffffff168173ffffffffffffffffffffffffffffffffffffffff1614806105e557506105e48133611177565b5b610624576040517f08c379a000000000000000000000000000000000000000000000000000000000815260040161061b906125f9565b60405180910390fd5b826003600084815260200190815260200160002060006101000a81548173ffffffffffffffffffffffffffffffffffffffff021916908373ffffffffffffffffffffffffffffffffffffffff160217905550818373ffffffffffffffffffffffffffffffffffffffff168273ffffffffffffffffffffffffffffffffffffffff167f8c5be1e5ebec7d5bd14f71427d1e84f3dd0314c0f7b2291e5b200ac8c7c3b92560405160405180910390a4505050565b6060600b80546106e590612648565b80601f016020809104026020016040519081016040528092919081815260200182805461071190612648565b801561075e5780601f106107335761010080835404028352916020019161075e565b820191906000526020600020905b81548152906001019060200180831161074157829003601f168201915b5050505050905090565b6060600a805461077790612648565b80601f01602080910402602001604051908101604052809291908181526020018280546107a390612648565b80156107f05780601f106107c5576101008083540402835291602001916107f0565b820191906000526020600020905b8154815290600101906020018083116107d357829003601f168201915b5050505050905090565b6000600880549050905090565b6108113382611302565b610850576040517f08c379a0000000000000000000000000000000000000000000000000000000008152600401610847906126c5565b60405180910390fd5b61085b838383611397565b505050565b600061086b83610b2b565b821061087657600080fd5b600660008473ffffffffffffffffffffffffffffffffffffffff1673ffffffffffffffffffffffffffffffffffffffff16815260200190815260200160002082815481106108c7576108c66126e5565b5b9060005260206000200154905092915050565b6108e26113bb565b73ffffffffffffffffffffffffffffffffffffffff16610900610d29565b73ffffffffffffffffffffffffffffffffffffffff1614610956576040517f08c379a000000000000000000000000000000000000000000000000000000000815260040161094d90612760565b60405180910390fd5b600060149054906101000a900460ff166109a5576040517f08c379a000000000000000000000000000000000000000000000000000000000815260040161099c906127cc565b60405180910390fd5b60008060146101000a81548160ff0219169083151502179055507f5db9ee0a495bf2e6ff9c91a7834c1ba4fdd244a5e8aa4e537bd38aeae4b073aa336040516109ee91906120a5565b60405180910390a1565b6000610a026113bb565b73ffffffffffffffffffffffffffffffffffffffff16610a20610d29565b73ffffffffffffffffffffffffffffffffffffffff1614610a76576040517f08c379a0000000000000000000000000000000000000000000000000000000008152600401610a6d90612760565b60405180910390fd5b610a8083836113c3565b610a8982610f75565b6001905092915050565b610aae83838360405180602001604052806000815250610ebd565b505050565b6000610abd6107fa565b8210610ac857600080fd5b60088281548110610adc57610adb6126e5565b5b90600052602060002001549050919050565b60006002600083815260200190815260200160002060009054906101000a900473ffffffffffffffffffffffffffffffffffffffff169050919050565b6000610b74600460008473ffffffffffffffffffffffffffffffffffffffff1673ffffffffffffffffffffffffffffffffffffffff1681526020019081526020016000206113e4565b9050919050565b610b836113bb565b73ffffffffffffffffffffffffffffffffffffffff16610ba1610d29565b73ffffffffffffffffffffffffffffffffffffffff1614610bf7576040517f08c379a0000000000000000000000000000000000000000000000000000000008152600401610bee90612760565b60405180910390fd5b610c0160006113f2565b565b610c0b6113bb565b73ffffffffffffffffffffffffffffffffffffffff16610c29610d29565b73ffffffffffffffffffffffffffffffffffffffff1614610c7f576040517f08c379a0000000000000000000000000000000000000000000000000000000008152600401610c7690612760565b60405180910390fd5b60001515600060149054906101000a900460ff16151514610cd5576040517f08c379a0000000000000000000000000000000000000000000000000000000008152600401610ccc90612838565b60405180910390fd5b6001600060146101000a81548160ff0219169083151502179055507f62e78cea01bee320cd4e420270b5ea74000d11b0c9f74754ebdbfc544b05a25833604051610d1f91906120a5565b60405180910390a1565b60008060009054906101000a900473ffffffffffffffffffffffffffffffffffffffff16905090565b3373ffffffffffffffffffffffffffffffffffffffff168273ffffffffffffffffffffffffffffffffffffffff1603610dc0576040517f08c379a0000000000000000000000000000000000000000000000000000000008152600401610db7906128a4565b60405180910390fd5b80600560003373ffffffffffffffffffffffffffffffffffffffff1673ffffffffffffffffffffffffffffffffffffffff16815260200190815260200160002060008473ffffffffffffffffffffffffffffffffffffffff1673ffffffffffffffffffffffffffffffffffffffff16815260200190815260200160002060006101000a81548160ff0219169083151502179055508173ffffffffffffffffffffffffffffffffffffffff163373ffffffffffffffffffffffffffffffffffffffff167f17307eab39ab6107e8899845ad3d59bd9653f200f220920489ca2b5937696c3183604051610eb19190611fe6565b60405180910390a35050565b610ec8848484610807565b610ed4848484846114b6565b610edd57600080fd5b50505050565b6060600c8054610ef290612648565b80601f0160208091040260200160405190810160405280929190818152602001828054610f1e90612648565b8015610f6b5780601f10610f4057610100808354040283529160200191610f6b565b820191906000526020600020905b815481529060010190602001808311610f4e57829003601f168201915b5050505050905090565b610f7e816115be565b610fbd576040517f08c379a0000000000000000000000000000000000000000000000000000000008152600401610fb490612910565b60405180910390fd5b60003073ffffffffffffffffffffffffffffffffffffffff1663bdc32be06040518163ffffffff1660e01b8152600401600060405180830381865afa15801561100a573d6000803e3d6000fd5b505050506040513d6000823e3d601f19601f8201168201806040525081019061103391906129d1565b61103c83611630565b60405160200161104d929190612a56565b604051602081830303815290604052905080600d60008481526020019081526020016000209080519060200190611085929190611e8f565b505050565b6060611095826115be565b6110d4576040517f08c379a00000000000000000000000000000000000000000000000000000000081526004016110cb90612910565b60405180910390fd5b600d600083815260200190815260200160002080546110f290612648565b80601f016020809104026020016040519081016040528092919081815260200182805461111e90612648565b801561116b5780601f106111405761010080835404028352916020019161116b565b820191906000526020600020905b81548152906001019060200180831161114e57829003601f168201915b50505050509050919050565b6000600560008473ffffffffffffffffffffffffffffffffffffffff1673ffffffffffffffffffffffffffffffffffffffff16815260200190815260200160002060008373ffffffffffffffffffffffffffffffffffffffff1673ffffffffffffffffffffffffffffffffffffffff16815260200190815260200160002060009054906101000a900460ff16905092915050565b6112136113bb565b73ffffffffffffffffffffffffffffffffffffffff16611231610d29565b73ffffffffffffffffffffffffffffffffffffffff1614611287576040517f08c379a000000000000000000000000000000000000000000000000000000000815260040161127e90612760565b60405180910390fd5b600073ffffffffffffffffffffffffffffffffffffffff168173ffffffffffffffffffffffffffffffffffffffff16036112f6576040517f08c379a00000000000000000000000000000000000000000000000000000000081526004016112ed90612aec565b60405180910390fd5b6112ff816113f2565b50565b60008061130e83610aee565b90508073ffffffffffffffffffffffffffffffffffffffff168473ffffffffffffffffffffffffffffffffffffffff16148061137d57508373ffffffffffffffffffffffffffffffffffffffff16611365846104ed565b73ffffffffffffffffffffffffffffffffffffffff16145b8061138e575061138d8185611177565b5b91505092915050565b6113a2838383611790565b6113ac83826119c5565b6113b68282611b3c565b505050565b600033905090565b6113cd8282611c00565b6113d78282611b3c565b6113e081611db1565b5050565b600081600001549050919050565b60008060009054906101000a900473ffffffffffffffffffffffffffffffffffffffff169050816000806101000a81548173ffffffffffffffffffffffffffffffffffffffff021916908373ffffffffffffffffffffffffffffffffffffffff1602179055508173ffffffffffffffffffffffffffffffffffffffff168173ffffffffffffffffffffffffffffffffffffffff167f8be0079c531659141344cd1fd0a4f28419497f9722a3daafe3b4186f6b6457e060405160405180910390a35050565b60006114d78473ffffffffffffffffffffffffffffffffffffffff16611dfa565b6114e457600190506115b6565b60008473ffffffffffffffffffffffffffffffffffffffff1663150b7a02338887876040518563ffffffff1660e01b81526004016115259493929190612b61565b6020604051808303816000875af1158015611544573d6000803e3d6000fd5b505050506040513d601f19601f820116820180604052508101906115689190612bc2565b905063150b7a0260e01b7bffffffffffffffffffffffffffffffffffffffffffffffffffffffff1916817bffffffffffffffffffffffffffffffffffffffffffffffffffffffff1916149150505b949350505050565b6000806002600084815260200190815260200160002060009054906101000a900473ffffffffffffffffffffffffffffffffffffffff169050600073ffffffffffffffffffffffffffffffffffffffff168173ffffffffffffffffffffffffffffffffffffffff161415915050919050565b606060008203611677576040518060400160405280600181526020017f3000000000000000000000000000000000000000000000000000000000000000815250905061178b565b600082905060005b600082146116a957808061169290612c1e565b915050600a826116a29190612c95565b915061167f565b60008167ffffffffffffffff8111156116c5576116c4612307565b5b6040519080825280601f01601f1916602001820160405280156116f75781602001600182028036833780820191505090505b5090505b60008514611784576001826117109190612cc6565b9150600a8561171f9190612cfa565b603061172b9190612d2b565b60f81b818381518110611741576117406126e5565b5b60200101907effffffffffffffffffffffffffffffffffffffffffffffffffffffffffffff1916908160001a905350600a8561177d9190612c95565b94506116fb565b8093505050505b919050565b6002600082815260200190815260200160002060009054906101000a900473ffffffffffffffffffffffffffffffffffffffff1673ffffffffffffffffffffffffffffffffffffffff168373ffffffffffffffffffffffffffffffffffffffff1614611831576040517f08c379a000000000000000000000000000000000000000000000000000000000815260040161182890612df3565b60405180910390fd5b60006003600083815260200190815260200160002060006101000a81548173ffffffffffffffffffffffffffffffffffffffff021916908373ffffffffffffffffffffffffffffffffffffffff1602179055506118cb600460008573ffffffffffffffffffffffffffffffffffffffff1673ffffffffffffffffffffffffffffffffffffffff168152602001908152602001600020611e1d565b816002600083815260200190815260200160002060006101000a81548173ffffffffffffffffffffffffffffffffffffffff021916908373ffffffffffffffffffffffffffffffffffffffff160217905550611964600460008473ffffffffffffffffffffffffffffffffffffffff1673ffffffffffffffffffffffffffffffffffffffff168152602001908152602001600020611e79565b808273ffffffffffffffffffffffffffffffffffffffff16600073ffffffffffffffffffffffffffffffffffffffff167fddf252ad1be2c89b69c2b068fc378daa952ba7f163c4a11628f55a4df523b3ef60405160405180910390a4505050565b600060016119d284610b2b565b6119dc9190612cc6565b9050600060076000848152602001908152602001600020549050818114611ad7576000600660008673ffffffffffffffffffffffffffffffffffffffff1673ffffffffffffffffffffffffffffffffffffffff1681526020019081526020016000208381548110611a5057611a4f6126e5565b5b9060005260206000200154905080600660008773ffffffffffffffffffffffffffffffffffffffff1673ffffffffffffffffffffffffffffffffffffffff1681526020019081526020016000208381548110611aaf57611aae6126e5565b5b9060005260206000200181905550816007600083815260200190815260200160002081905550505b600660008573ffffffffffffffffffffffffffffffffffffffff1673ffffffffffffffffffffffffffffffffffffffff1681526020019081526020016000208281548110611b2857611b276126e5565b5b906000526020600020016000905550505050565b600660008373ffffffffffffffffffffffffffffffffffffffff1673ffffffffffffffffffffffffffffffffffffffff168152602001908152602001600020805490506007600083815260200190815260200160002081905550600660008373ffffffffffffffffffffffffffffffffffffffff1673ffffffffffffffffffffffffffffffffffffffff1681526020019081526020016000208190806001815401808255809150506001900390600052602060002001600090919091909150555050565b611c09816115be565b15611c49576040517f08c379a0000000000000000000000000000000000000000000000000000000008152600401611c4090612e5f565b60405180910390fd5b600073ffffffffffffffffffffffffffffffffffffffff168273ffffffffffffffffffffffffffffffffffffffff1603611cb8576040517f08c379a0000000000000000000000000000000000000000000000000000000008152600401611caf90612ecb565b60405180910390fd5b816002600083815260200190815260200160002060006101000a81548173ffffffffffffffffffffffffffffffffffffffff021916908373ffffffffffffffffffffffffffffffffffffffff160217905550611d51600460008473ffffffffffffffffffffffffffffffffffffffff1673ffffffffffffffffffffffffffffffffffffffff168152602001908152602001600020611e79565b808273ffffffffffffffffffffffffffffffffffffffff16600073ffffffffffffffffffffffffffffffffffffffff167fddf252ad1be2c89b69c2b068fc378daa952ba7f163c4a11628f55a4df523b3ef60405160405180910390a45050565b6008805490506009600083815260200190815260200160002081905550600881908060018154018082558091505060019003906000526020600020016000909190919091505550565b6000808273ffffffffffffffffffffffffffffffffffffffff163b119050919050565b60008160000154905060008111611e69576040517f08c379a0000000000000000000000000000000000000000000000000000000008152600401611e6090612f37565b60405180910390fd5b6001810382600001819055505050565b6001816000016000828254019250508190555050565b828054611e9b90612648565b90600052602060002090601f016020900481019282611ebd5760008555611f04565b82601f10611ed657805160ff1916838001178555611f04565b82800160010185558215611f04579182015b82811115611f03578251825591602001919060010190611ee8565b5b509050611f119190611f15565b5090565b5b80821115611f2e576000816000905550600101611f16565b5090565b6000604051905090565b600080fd5b600080fd5b60007fffffffff0000000000000000000000000000000000000000000000000000000082169050919050565b611f7b81611f46565b8114611f8657600080fd5b50565b600081359050611f9881611f72565b92915050565b600060208284031215611fb457611fb3611f3c565b5b6000611fc284828501611f89565b91505092915050565b60008115159050919050565b611fe081611fcb565b82525050565b6000602082019050611ffb6000830184611fd7565b92915050565b6000819050919050565b61201481612001565b811461201f57600080fd5b50565b6000813590506120318161200b565b92915050565b60006020828403121561204d5761204c611f3c565b5b600061205b84828501612022565b91505092915050565b600073ffffffffffffffffffffffffffffffffffffffff82169050919050565b600061208f82612064565b9050919050565b61209f81612084565b82525050565b60006020820190506120ba6000830184612096565b92915050565b6120c981612084565b81146120d457600080fd5b50565b6000813590506120e6816120c0565b92915050565b6000806040838503121561210357612102611f3c565b5b6000612111858286016120d7565b925050602061212285828601612022565b9150509250929050565b600081519050919050565b600082825260208201905092915050565b60005b8381101561216657808201518184015260208101905061214b565b83811115612175576000848401525b50505050565b6000601f19601f8301169050919050565b60006121978261212c565b6121a18185612137565b93506121b1818560208601612148565b6121ba8161217b565b840191505092915050565b600060208201905081810360008301526121df818461218c565b905092915050565b6121f081612001565b82525050565b600060208201905061220b60008301846121e7565b92915050565b60008060006060848603121561222a57612229611f3c565b5b6000612238868287016120d7565b9350506020612249868287016120d7565b925050604061225a86828701612022565b9150509250925092565b60006020828403121561227a57612279611f3c565b5b6000612288848285016120d7565b91505092915050565b61229a81611fcb565b81146122a557600080fd5b50565b6000813590506122b781612291565b92915050565b600080604083850312156122d4576122d3611f3c565b5b60006122e2858286016120d7565b92505060206122f3858286016122a8565b9150509250929050565b600080fd5b600080fd5b7f4e487b7100000000000000000000000000000000000000000000000000000000600052604160045260246000fd5b61233f8261217b565b810181811067ffffffffffffffff8211171561235e5761235d612307565b5b80604052505050565b6000612371611f32565b905061237d8282612336565b919050565b600067ffffffffffffffff82111561239d5761239c612307565b5b6123a68261217b565b9050602081019050919050565b82818337600083830152505050565b60006123d56123d084612382565b612367565b9050828152602081018484840111156123f1576123f0612302565b5b6123fc8482856123b3565b509392505050565b600082601f830112612419576124186122fd565b5b81356124298482602086016123c2565b91505092915050565b6000806000806080858703121561244c5761244b611f3c565b5b600061245a878288016120d7565b945050602061246b878288016120d7565b935050604061247c87828801612022565b925050606085013567ffffffffffffffff81111561249d5761249c611f41565b5b6124a987828801612404565b91505092959194509250565b600080604083850312156124cc576124cb611f3c565b5b60006124da858286016120d7565b92505060206124eb858286016120d7565b9150509250929050565b7f726571756972652074686520676976656e206164647265737320746f206e6f7460008201527f20626520746865206f776e6572206f662074686520746f6b656e496400000000602082015250565b6000612551603c83612137565b915061255c826124f5565b604082019050919050565b6000602082019050818103600083015261258081612544565b9050919050565b7f6d73672073656e646572206e6f7420746865206f776e6572206f66207468652060008201527f636f6e7472616374206f72206e6f7420617070726f76656420666f7220616c6c602082015250565b60006125e3604083612137565b91506125ee82612587565b604082019050919050565b60006020820190508181036000830152612612816125d6565b9050919050565b7f4e487b7100000000000000000000000000000000000000000000000000000000600052602260045260246000fd5b6000600282049050600182168061266057607f821691505b60208210810361267357612672612619565b5b50919050565b7f4f776e6572206e6565647320746f20626520617070726f766564000000000000600082015250565b60006126af601a83612137565b91506126ba82612679565b602082019050919050565b600060208201905081810360008301526126de816126a2565b9050919050565b7f4e487b7100000000000000000000000000000000000000000000000000000000600052603260045260246000fd5b7f4f776e61626c653a2063616c6c6572206973206e6f7420746865206f776e6572600082015250565b600061274a602083612137565b915061275582612714565b602082019050919050565b600060208201905081810360008301526127798161273d565b9050919050565b7f436f6e7472616374207061757365640000000000000000000000000000000000600082015250565b60006127b6600f83612137565b91506127c182612780565b602082019050919050565b600060208201905081810360008301526127e5816127a9565b9050919050565b7f436f6e7472616374206e6f742070617573656400000000000000000000000000600082015250565b6000612822601383612137565b915061282d826127ec565b602082019050919050565b6000602082019050818103600083015261285181612815565b9050919050565b7f746f206e6f74206d73672e73656e646572000000000000000000000000000000600082015250565b600061288e601183612137565b915061289982612858565b602082019050919050565b600060208201905081810360008301526128bd81612881565b9050919050565b7f546f6b656e20696420646f6573206e6f74206578697374000000000000000000600082015250565b60006128fa601783612137565b9150612905826128c4565b602082019050919050565b60006020820190508181036000830152612929816128ed565b9050919050565b600067ffffffffffffffff82111561294b5761294a612307565b5b6129548261217b565b9050602081019050919050565b600061297461296f84612930565b612367565b9050828152602081018484840111156129905761298f612302565b5b61299b848285612148565b509392505050565b600082601f8301126129b8576129b76122fd565b5b81516129c8848260208601612961565b91505092915050565b6000602082840312156129e7576129e6611f3c565b5b600082015167ffffffffffffffff811115612a0557612a04611f41565b5b612a11848285016129a3565b91505092915050565b600081905092915050565b6000612a308261212c565b612a3a8185612a1a565b9350612a4a818560208601612148565b80840191505092915050565b6000612a628285612a25565b9150612a6e8284612a25565b91508190509392505050565b7f4f776e61626c653a206e6577206f776e657220697320746865207a65726f206160008201527f6464726573730000000000000000000000000000000000000000000000000000602082015250565b6000612ad6602683612137565b9150612ae182612a7a565b604082019050919050565b60006020820190508181036000830152612b0581612ac9565b9050919050565b600081519050919050565b600082825260208201905092915050565b6000612b3382612b0c565b612b3d8185612b17565b9350612b4d818560208601612148565b612b568161217b565b840191505092915050565b6000608082019050612b766000830187612096565b612b836020830186612096565b612b9060408301856121e7565b8181036060830152612ba28184612b28565b905095945050505050565b600081519050612bbc81611f72565b92915050565b600060208284031215612bd857612bd7611f3c565b5b6000612be684828501612bad565b91505092915050565b7f4e487b7100000000000000000000000000000000000000000000000000000000600052601160045260246000fd5b6000612c2982612001565b91507fffffffffffffffffffffffffffffffffffffffffffffffffffffffffffffffff8203612c5b57612c5a612bef565b5b600182019050919050565b7f4e487b7100000000000000000000000000000000000000000000000000000000600052601260045260246000fd5b6000612ca082612001565b9150612cab83612001565b925082612cbb57612cba612c66565b5b828204905092915050565b6000612cd182612001565b9150612cdc83612001565b925082821015612cef57612cee612bef565b5b828203905092915050565b6000612d0582612001565b9150612d1083612001565b925082612d2057612d1f612c66565b5b828206905092915050565b6000612d3682612001565b9150612d4183612001565b9250827fffffffffffffffffffffffffffffffffffffffffffffffffffffffffffffffff03821115612d7657612d75612bef565b5b828201905092915050565b7f66726f6d2061646472657373206973206e6f7420746865206f776e6572206f6660008201527f2074686520676976656e20746f6b656e00000000000000000000000000000000602082015250565b6000612ddd603083612137565b9150612de882612d81565b604082019050919050565b60006020820190508181036000830152612e0c81612dd0565b9050919050565b7f546f6b656e20494420616c726561647920657869737473000000000000000000600082015250565b6000612e49601783612137565b9150612e5482612e13565b602082019050919050565b60006020820190508181036000830152612e7881612e3c565b9050919050565b7f6e6f7420616c6c6f77656420746f206d696e7420746f20302061646472657373600082015250565b6000612eb5602083612137565b9150612ec082612e7f565b602082019050919050565b60006020820190508181036000830152612ee481612ea8565b9050919050565b7f436f756e7465723a2064656372656d656e74206f766572666c6f770000000000600082015250565b6000612f21601b83612137565b9150612f2c82612eeb565b602082019050919050565b60006020820190508181036000830152612f5081612f14565b905091905056fea26469706673582212200d8a7589dab18ec1a9ab2791f0c53188d4dfe49a5665c01277e0df8abd2da02264736f6c634300080d003368747470733a2f2f73332d75732d776573742d322e616d617a6f6e6177732e636f6d2f756461636974792d626c6f636b636861696e2f63617073746f6e652f",
  "immutableReferences": {},
  "source": "pragma solidity ^0.8.13;\n\n\nimport '@openzeppelin/contracts/utils/Address.sol';\nimport \"@openzeppelin/contracts/utils/Counters.sol\";\nimport \"@openzeppelin/contracts/utils/math/SafeMath.sol\";\nimport \"@openzeppelin/contracts/utils/Strings.sol\";\n\nimport \"@openzeppelin/contracts/access/Ownable.sol\";\n\nimport \"@openzeppelin/contracts/token/ERC721/IERC721Receiver.sol\";\n\n\n\n//  TODO's: Create a Pausable contract that inherits from the Ownable contract\n//  1) create a private '_paused' variable of type bool\n//  2) create a public setter using the inherited onlyOwner modifier \n//  3) create an internal constructor that sets the _paused variable to false\n//  4) create 'whenNotPaused' & 'paused' modifier that throws in the appropriate situation\n//  5) create a Paused & Unpaused event that emits the address that triggered the event\n\ncontract Pausable is Ownable {\n    bool private _paused;\n    \n    event Paused(address from);\n    event Unpaused(address from);\n\n\n\n    modifier whenPaused(){\n        require(_paused, 'Contract paused');\n        _;\n    }\n\n    modifier whenNotPaused(){\n        require(_paused == false, 'Contract not paused');\n        _;\n    }\n\n\n    function pause() public onlyOwner whenNotPaused {\n        _paused = true;\n        emit Paused(msg.sender);\n    }\n\n    function unpause() public onlyOwner whenPaused {\n        _paused = false;\n        emit Unpaused(msg.sender);\n    }\n}\n\ncontract ERC165 {\n    bytes4 private constant _INTERFACE_ID_ERC165 = 0x01ffc9a7;\n    /*\n     * 0x01ffc9a7 ===\n     *     bytes4(keccak256('supportsInterface(bytes4)'))\n     */\n\n    /**\n     * @dev a mapping of interface id to whether or not it's supported\n     */\n    mapping(bytes4 => bool) private _supportedInterfaces;\n\n    /**\n     * @dev A contract implementing SupportsInterfaceWithLookup\n     * implement ERC165 itself\n     */\n    constructor () {\n        _registerInterface(_INTERFACE_ID_ERC165);\n    }\n\n    /**\n     * @dev implement supportsInterface(bytes4) using a lookup table\n     */\n    function supportsInterface(bytes4 interfaceId) external view returns (bool) {\n        return _supportedInterfaces[interfaceId];\n    }\n\n    /**\n     * @dev internal method for registering an interface\n     */\n    function _registerInterface(bytes4 interfaceId) internal {\n        require(interfaceId != 0xffffffff);\n        _supportedInterfaces[interfaceId] = true;\n    }\n}\n\ncontract ERC721 is Pausable, ERC165 {\n\n    event Transfer(address indexed from, address indexed to, uint256 indexed tokenId);\n\n    event Approval(address indexed owner, address indexed approved, uint256 indexed tokenId);\n\n    event ApprovalForAll(address indexed owner, address indexed operator, bool approved);\n    \n    using SafeMath for uint256;\n    using Address for address;\n    using Counters for Counters.Counter;\n\n    // Equals to `bytes4(keccak256(\"onERC721Received(address,address,uint256,bytes)\"))`\n    // which can be also obtained as `IERC721Receiver(0).onERC721Received.selector`\n    bytes4 private constant _ERC721_RECEIVED = 0x150b7a02;\n\n    // Mapping from token ID to owner\n    mapping (uint256 => address) private _tokenOwner;\n\n    // Mapping from token ID to approved address\n    mapping (uint256 => address) private _tokenApprovals;\n\n    // Mapping from owner to number of owned token\n    // IMPORTANT: this mapping uses Counters lib which is used to protect overflow when incrementing/decrementing a uint\n    // use the following functions when interacting with Counters: increment(), decrement(), and current() to get the value\n    // see: https://github.com/OpenZeppelin/openzeppelin-solidity/blob/master/contracts/drafts/Counters.sol\n    mapping (address => Counters.Counter) private _ownedTokensCount;\n\n    // Mapping from owner to operator approvals\n    mapping (address => mapping (address => bool)) private _operatorApprovals;\n\n    bytes4 private constant _INTERFACE_ID_ERC721 = 0x80ac58cd;\n\n    constructor () public {\n        // register the supported interfaces to conform to ERC721 via ERC165\n        _registerInterface(_INTERFACE_ID_ERC721);\n    }\n\n    function balanceOf(address owner) public view returns (uint256) {\n        // TODO return the token balance of given address\n        return _ownedTokensCount[owner].current();\n    }\n\n    function ownerOf(uint256 tokenId) public view returns (address) {\n        // TODO return the owner of the given tokenId\n        return _tokenOwner[tokenId];\n    }\n\n//    @dev Approves another address to transfer the given token ID\n    function approve(address to, uint256 tokenId) public {\n        \n        address ownerToken =  ownerOf(tokenId);\n        require(to != ownerToken, \"require the given address to not be the owner of the tokenId\");\n\n        // TODO require the msg sender to be the owner of the contract or isApprovedForAll() to be true\n        require(ownerToken == msg.sender || isApprovedForAll(ownerToken, msg.sender), \"msg sender not the owner of the contract or not approved for all\");\n\n        // TODO add 'to' address to token approvals\n        _tokenApprovals[tokenId] = to;\n        \n\n        emit Approval(ownerToken, to, tokenId);\n    }\n\n    function getApproved(uint256 tokenId) public view returns (address) {\n        return _tokenApprovals[tokenId];\n    }\n\n    /**\n     * @dev Sets or unsets the approval of a given operator\n     * An operator is allowed to transfer all tokens of the sender on their behalf\n     * @param to operator address to set the approval\n     * @param approved representing the status of the approval to be set\n     */\n    function setApprovalForAll(address to, bool approved) public {\n        require(to != msg.sender, \"to not msg.sender\");\n        _operatorApprovals[msg.sender][to] = approved;\n        emit ApprovalForAll(msg.sender, to, approved);\n    }\n\n    /**\n     * @dev Tells whether an operator is approved by a given owner\n     * @param owner owner address which you want to query the approval of\n     * @param operator operator address which you want to query the approval of\n     * @return bool whether the given operator is approved by the given owner\n     */\n    function isApprovedForAll(address owner, address operator) public view returns (bool) {\n        return _operatorApprovals[owner][operator];\n    }\n\n    function transferFrom(address from, address to, uint256 tokenId) public {\n        require(_isApprovedOrOwner(msg.sender, tokenId), \"Owner needs to be approved\");\n\n        _transferFrom(from, to, tokenId);\n    }\n\n    function safeTransferFrom(address from, address to, uint256 tokenId) public {\n        safeTransferFrom(from, to, tokenId, \"\");\n    }\n\n    function safeTransferFrom(address from, address to, uint256 tokenId, bytes memory _data) public {\n        transferFrom(from, to, tokenId);\n        require(_checkOnERC721Received(from, to, tokenId, _data));\n    }\n\n    /**\n     * @dev Returns whether the specified token exists\n     * @param tokenId uint256 ID of the token to query the existence of\n     * @return bool whether the token exists\n     */\n    function _exists(uint256 tokenId) internal view returns (bool) {\n        address owner = _tokenOwner[tokenId];\n        return owner != address(0);\n    }\n\n    /**\n     * @dev Returns whether the given spender can transfer a given token ID\n     * @param spender address of the spender to query\n     * @param tokenId uint256 ID of the token to be transferred\n     * @return bool whether the msg.sender is approved for the given token ID,\n     * is an operator of the owner, or is the owner of the token\n     */\n    function _isApprovedOrOwner(address spender, uint256 tokenId) internal view returns (bool) {\n        address owner = ownerOf(tokenId);\n        return (spender == owner || getApproved(tokenId) == spender || isApprovedForAll(owner, spender));\n    }\n\n    // @dev Internal function to mint a new token\n    // TIP: remember the functions to use for Counters. you can refresh yourself with the link above\n    function _mint(address to, uint256 tokenId) internal virtual {\n        \n        require(!_exists(tokenId), 'Token ID already exists');\n        require(to != address(0), 'not allowed to mint to 0 address');\n  \n        // TODO mint tokenId to given address & increase token count of owner\n        _tokenOwner[tokenId] = to;\n        _ownedTokensCount[to].increment();\n\n        // TODO emit Transfer event\n        emit Transfer(address(0), to, tokenId);\n\n    }\n\n    // @dev Internal function to transfer ownership of a given token ID to another address.\n    // TIP: remember the functions to use for Counters. you can refresh yourself with the link above\n    function _transferFrom(address from, address to, uint256 tokenId) internal virtual  {\n\n        // TODO: require from address is the owner of the given token\n        require(from == _tokenOwner[tokenId], \"from address is not the owner of the given token\");\n\n        // TODO: require token is being transfered to valid address\n        \n        // TODO: clear approval\n        _tokenApprovals[tokenId] = address(0);\n        _ownedTokensCount[from].decrement();\n\n\n        // TODO: update token counts & transfer ownership of the token ID \n        _tokenOwner[tokenId] = to;\n        _ownedTokensCount[to].increment();\n\n        // TODO: emit correct event\n        emit Transfer(address(0), to, tokenId);\n    }\n\n    /**\n     * @dev Internal function to invoke `onERC721Received` on a target address\n     * The call is not executed if the target address is not a contract\n     * @param from address representing the previous owner of the given token ID\n     * @param to target address that will receive the tokens\n     * @param tokenId uint256 ID of the token to be transferred\n     * @param _data bytes optional data to send along with the call\n     * @return bool whether the call correctly returned the expected magic value\n     */\n    function _checkOnERC721Received(address from, address to, uint256 tokenId, bytes memory _data)\n        internal returns (bool)\n    {\n        if (!to.isContract()) {\n            return true;\n        }\n\n        bytes4 retval = IERC721Receiver(to).onERC721Received(msg.sender, from, tokenId, _data);\n        return (retval == _ERC721_RECEIVED);\n    }\n\n    // @dev Private function to clear current approval of a given token ID\n    function _clearApproval(uint256 tokenId) private {\n        if (_tokenApprovals[tokenId] != address(0)) {\n            _tokenApprovals[tokenId] = address(0);\n        }\n    }\n}\n\ncontract ERC721Enumerable is ERC165, ERC721 {\n    // Mapping from owner to list of owned token IDs\n    mapping(address => uint256[]) private _ownedTokens;\n\n    // Mapping from token ID to index of the owner tokens list\n    mapping(uint256 => uint256) private _ownedTokensIndex;\n\n    // Array with all token ids, used for enumeration\n    uint256[] private _allTokens;\n\n    // Mapping from token id to position in the allTokens array\n    mapping(uint256 => uint256) private _allTokensIndex;\n\n    bytes4 private constant _INTERFACE_ID_ERC721_ENUMERABLE = 0x780e9d63;\n    /*\n     * 0x780e9d63 ===\n     *     bytes4(keccak256('totalSupply()')) ^\n     *     bytes4(keccak256('tokenOfOwnerByIndex(address,uint256)')) ^\n     *     bytes4(keccak256('tokenByIndex(uint256)'))\n     */\n\n    /**\n     * @dev Constructor function\n     */\n    constructor () {\n        // register the supported interface to conform to ERC721Enumerable via ERC165\n        _registerInterface(_INTERFACE_ID_ERC721_ENUMERABLE);\n    }\n\n    /**\n     * @dev Gets the token ID at a given index of the tokens list of the requested owner\n     * @param owner address owning the tokens list to be accessed\n     * @param index uint256 representing the index to be accessed of the requested tokens list\n     * @return uint256 token ID at the given index of the tokens list owned by the requested address\n     */\n    function tokenOfOwnerByIndex(address owner, uint256 index) public view returns (uint256) {\n        require(index < balanceOf(owner));\n        return _ownedTokens[owner][index];\n    }\n\n    /**\n     * @dev Gets the total amount of tokens stored by the contract\n     * @return uint256 representing the total amount of tokens\n     */\n    function totalSupply() public view returns (uint256) {\n        return _allTokens.length;\n    }\n\n    /**\n     * @dev Gets the token ID at a given index of all the tokens in this contract\n     * Reverts if the index is greater or equal to the total number of tokens\n     * @param index uint256 representing the index to be accessed of the tokens list\n     * @return uint256 token ID at the given index of the tokens list\n     */\n    function tokenByIndex(uint256 index) public view returns (uint256) {\n        require(index < totalSupply());\n        return _allTokens[index];\n    }\n\n    /**\n     * @dev Internal function to transfer ownership of a given token ID to another address.\n     * As opposed to transferFrom, this imposes no restrictions on msg.sender.\n     * @param from current owner of the token\n     * @param to address to receive the ownership of the given token ID\n     * @param tokenId uint256 ID of the token to be transferred\n     */\n    function _transferFrom(address from, address to, uint256 tokenId) internal override{\n        super._transferFrom(from, to, tokenId);\n\n        _removeTokenFromOwnerEnumeration(from, tokenId);\n\n        _addTokenToOwnerEnumeration(to, tokenId);\n    }\n\n    /**\n     * @dev Internal function to mint a new token\n     * Reverts if the given token ID already exists\n     * @param to address the beneficiary that will own the minted token\n     * @param tokenId uint256 ID of the token to be minted\n     */\n    function _mint(address to, uint256 tokenId) internal override{\n        super._mint(to, tokenId);\n\n        _addTokenToOwnerEnumeration(to, tokenId);\n\n        _addTokenToAllTokensEnumeration(tokenId);\n    }\n\n    /**\n     * @dev Gets the list of token IDs of the requested owner\n     * @param owner address owning the tokens\n     * @return uint256[] List of token IDs owned by the requested address\n     */\n    function _tokensOfOwner(address owner) internal view returns (uint256[] storage) {\n        return _ownedTokens[owner];\n    }\n\n    /**\n     * @dev Private function to add a token to this extension's ownership-tracking data structures.\n     * @param to address representing the new owner of the given token ID\n     * @param tokenId uint256 ID of the token to be added to the tokens list of the given address\n     */\n    function _addTokenToOwnerEnumeration(address to, uint256 tokenId) private {\n        _ownedTokensIndex[tokenId] = _ownedTokens[to].length;\n        _ownedTokens[to].push(tokenId);\n    }\n\n    /**\n     * @dev Private function to add a token to this extension's token tracking data structures.\n     * @param tokenId uint256 ID of the token to be added to the tokens list\n     */\n    function _addTokenToAllTokensEnumeration(uint256 tokenId) private {\n        _allTokensIndex[tokenId] = _allTokens.length;\n        _allTokens.push(tokenId);\n    }\n\n    /**\n     * @dev Private function to remove a token from this extension's ownership-tracking data structures. Note that\n     * while the token is not assigned a new owner, the _ownedTokensIndex mapping is _not_ updated: this allows for\n     * gas optimizations e.g. when performing a transfer operation (avoiding double writes).\n     * This has O(1) time complexity, but alters the order of the _ownedTokens array.\n     * @param from address representing the previous owner of the given token ID\n     * @param tokenId uint256 ID of the token to be removed from the tokens list of the given address\n     */\n    function _removeTokenFromOwnerEnumeration(address from, uint256 tokenId) private {\n        // To prevent a gap in from's tokens array, we store the last token in the index of the token to delete, and\n        // then delete the last slot (swap and pop).\n\n        uint256 lastTokenIndex = ERC721.balanceOf(from) - 1;\n        uint256 tokenIndex = _ownedTokensIndex[tokenId];\n\n        // When the token to delete is the last token, the swap operation is unnecessary\n        if (tokenIndex != lastTokenIndex) {\n            uint256 lastTokenId = _ownedTokens[from][lastTokenIndex];\n\n            _ownedTokens[from][tokenIndex] = lastTokenId; // Move the last token to the slot of the to-delete token\n            _ownedTokensIndex[lastTokenId] = tokenIndex; // Update the moved token's index\n        }\n\n        // This also deletes the contents at the last position of the array\n\n        delete _ownedTokens[from][lastTokenIndex];\n\n        // Note that _ownedTokensIndex[tokenId] hasn't been cleared: it still points to the old slot (now occupied by\n        // lastTokenId, or just over the end of the array if the token was the last one).\n    }\n\n    /**\n     * @dev Private function to remove a token from this extension's token tracking data structures.\n     * This has O(1) time complexity, but alters the order of the _allTokens array.\n     * @param tokenId uint256 ID of the token to be removed from the tokens list\n     */\n    function _removeTokenFromAllTokensEnumeration(uint256 tokenId) private {\n        // To prevent a gap in the tokens array, we store the last token in the index of the token to delete, and\n        // then delete the last slot (swap and pop).\n\n        uint256 lastTokenIndex = _allTokens.length - 1;\n        uint256 tokenIndex = _allTokensIndex[tokenId];\n\n        // When the token to delete is the last token, the swap operation is unnecessary. However, since this occurs so\n        // rarely (when the last minted token is burnt) that we still do the swap here to avoid the gas cost of adding\n        // an 'if' statement (like in _removeTokenFromOwnerEnumeration)\n        uint256 lastTokenId = _allTokens[lastTokenIndex];\n\n        _allTokens[tokenIndex] = lastTokenId; // Move the last token to the slot of the to-delete token\n        _allTokensIndex[lastTokenId] = tokenIndex; // Update the moved token's index\n\n        // This also deletes the contents at the last position of the array\n        delete _allTokensIndex[tokenId];\n        _allTokens.pop();\n\n    }\n}\n\ncontract ERC721Metadata is ERC721Enumerable {\n    \n    using Strings for uint256;\n\n    // TODO: Create private vars for token _name, _symbol, and _baseTokenURI (string)\n    string private _name;\n    string private _symbol;\n    string private _baseTokenURI;\n\n\n\n    // TODO: create private mapping of tokenId's to token uri's called '_tokenURIs'\n\n    mapping(uint256 => string) _tokenURIs;\n\n    bytes4 private constant _INTERFACE_ID_ERC721_METADATA = 0x5b5e139f;\n    /*\n     * 0x5b5e139f ===\n     *     bytes4(keccak256('name()')) ^\n     *     bytes4(keccak256('symbol()')) ^\n     *     bytes4(keccak256('tokenURI(uint256)'))\n     */\n\n\n    constructor (string memory name, string memory symbol, string memory baseTokenURI) {\n        // TODO: set instance var values\n        _name = name;\n        _symbol = symbol;\n        _baseTokenURI = baseTokenURI;\n\n        _registerInterface(_INTERFACE_ID_ERC721_METADATA);\n    }\n\n\n    function getName() external view returns (string memory){\n        return _name;\n    }\n\n    function getSymbol() external view returns (string memory){\n        return _symbol;\n    }\n\n    function getBaseTokenURI() external view returns (string memory){\n        return _baseTokenURI;\n    }\n\n    function tokenURI(uint256 tokenId) external view returns (string memory) {\n        require(_exists(tokenId), \"Token id does not exist\");\n        return _tokenURIs[tokenId];\n    }\n\n\n    // TODO: Create an internal function to set the tokenURI of a specified tokenId\n    // It should be the _baseTokenURI + the tokenId in string form\n    // TIP #1: use strConcat() from the imported oraclizeAPI lib to set the complete token URI\n    // TIP #2: you can also use uint2str() to convert a uint to a string\n        // see https://github.com/oraclize/ethereum-api/blob/master/oraclizeAPI_0.5.sol for strConcat()\n    // require the token exists before setting\n\n    function setTokenURI(uint256 tokenId) public{\n        require(_exists(tokenId), \"Token id does not exist\");\n        string memory newURI = string(abi.encodePacked(this.getBaseTokenURI(), tokenId.toString()));        \n        _tokenURIs[tokenId] = newURI;\n    }\n}\n\n//  TODO's: Create CustomERC721Token contract that inherits from the ERC721Metadata contract. You can name this contract as you please\n//  1) Pass in appropriate values for the inherited ERC721Metadata contract\n//      - make the base token uri: https://s3-us-west-2.amazonaws.com/udacity-blockchain/capstone/\n//  2) create a public mint() that does the following:\n//      -can only be executed by the contract owner\n//      -takes in a 'to' address, tokenId, and tokenURI as parameters\n//      -returns a true boolean upon completion of the function\n//      -calls the superclass mint and setTokenURI functions\n\ncontract CustomERC721Token is ERC721Metadata{\n\n        constructor() ERC721Metadata(\"Real Estate Token\", \n                                     \"RET\", \n                                     \"https://s3-us-west-2.amazonaws.com/udacity-blockchain/capstone/\"\n                                     ) \n        {}\n        function mint(address to, uint256 tokenId) public onlyOwner returns(bool)\n            {\n                _mint(to, tokenId);\n                setTokenURI(tokenId);\n                return true;\n            }\n\n\n}\n\n\n\n",
  "sourcePath": "/Users/alex/Documents/udacity-blockchain-engineer/Blockchain-Capstone-master/eth-contracts/contracts/ERC721Mintable.sol",
  "compiler": {
    "name": "solc",
    "version": "0.8.13+commit.abaa5c0e.Emscripten.clang"
  },
  "schemaVersion": "3.4.7",
  "updatedAt": "2022-04-26T21:16:03.992Z",
  "networkType": "ethereum",
  "devdoc": {
    "kind": "dev",
    "methods": {
      "isApprovedForAll(address,address)": {
        "details": "Tells whether an operator is approved by a given owner",
        "params": {
          "operator": "operator address which you want to query the approval of",
          "owner": "owner address which you want to query the approval of"
        },
        "returns": {
          "_0": "bool whether the given operator is approved by the given owner"
        }
      },
      "owner()": {
        "details": "Returns the address of the current owner."
      },
      "renounceOwnership()": {
        "details": "Leaves the contract without owner. It will not be possible to call `onlyOwner` functions anymore. Can only be called by the current owner. NOTE: Renouncing ownership will leave the contract without an owner, thereby removing any functionality that is only available to the owner."
      },
      "setApprovalForAll(address,bool)": {
        "details": "Sets or unsets the approval of a given operator An operator is allowed to transfer all tokens of the sender on their behalf",
        "params": {
          "approved": "representing the status of the approval to be set",
          "to": "operator address to set the approval"
        }
      },
      "supportsInterface(bytes4)": {
        "details": "implement supportsInterface(bytes4) using a lookup table"
      },
      "tokenByIndex(uint256)": {
        "details": "Gets the token ID at a given index of all the tokens in this contract Reverts if the index is greater or equal to the total number of tokens",
        "params": {
          "index": "uint256 representing the index to be accessed of the tokens list"
        },
        "returns": {
          "_0": "uint256 token ID at the given index of the tokens list"
        }
      },
      "tokenOfOwnerByIndex(address,uint256)": {
        "details": "Gets the token ID at a given index of the tokens list of the requested owner",
        "params": {
          "index": "uint256 representing the index to be accessed of the requested tokens list",
          "owner": "address owning the tokens list to be accessed"
        },
        "returns": {
          "_0": "uint256 token ID at the given index of the tokens list owned by the requested address"
        }
      },
      "totalSupply()": {
        "details": "Gets the total amount of tokens stored by the contract",
        "returns": {
          "_0": "uint256 representing the total amount of tokens"
        }
      },
      "transferOwnership(address)": {
        "details": "Transfers ownership of the contract to a new account (`newOwner`). Can only be called by the current owner."
      }
    },
    "version": 1
  },
  "userdoc": {
    "kind": "user",
    "methods": {},
    "version": 1
  }
}