{
  "contractName": "ERC721Metadata",
  "abi": [
    {
      "inputs": [
        {
          "internalType": "string",
          "name": "name",
          "type": "string"
        },
        {
          "internalType": "string",
          "name": "symbol",
          "type": "string"
        },
        {
          "internalType": "string",
          "name": "baseTokenURI",
          "type": "string"
        }
      ],
      "stateMutability": "nonpayable",
      "type": "constructor"
    },
    {
      "anonymous": false,
      "inputs": [
        {
          "indexed": true,
          "internalType": "address",
          "name": "owner",
          "type": "address"
        },
        {
          "indexed": true,
          "internalType": "address",
          "name": "approved",
          "type": "address"
        },
        {
          "indexed": true,
          "internalType": "uint256",
          "name": "tokenId",
          "type": "uint256"
        }
      ],
      "name": "Approval",
      "type": "event"
    },
    {
      "anonymous": false,
      "inputs": [
        {
          "indexed": true,
          "internalType": "address",
          "name": "owner",
          "type": "address"
        },
        {
          "indexed": true,
          "internalType": "address",
          "name": "operator",
          "type": "address"
        },
        {
          "indexed": false,
          "internalType": "bool",
          "name": "approved",
          "type": "bool"
        }
      ],
      "name": "ApprovalForAll",
      "type": "event"
    },
    {
      "anonymous": false,
      "inputs": [
        {
          "indexed": true,
          "internalType": "address",
          "name": "previousOwner",
          "type": "address"
        },
        {
          "indexed": true,
          "internalType": "address",
          "name": "newOwner",
          "type": "address"
        }
      ],
      "name": "OwnershipTransferred",
      "type": "event"
    },
    {
      "anonymous": false,
      "inputs": [
        {
          "indexed": false,
          "internalType": "address",
          "name": "from",
          "type": "address"
        }
      ],
      "name": "Paused",
      "type": "event"
    },
    {
      "anonymous": false,
      "inputs": [
        {
          "indexed": true,
          "internalType": "address",
          "name": "from",
          "type": "address"
        },
        {
          "indexed": true,
          "internalType": "address",
          "name": "to",
          "type": "address"
        },
        {
          "indexed": true,
          "internalType": "uint256",
          "name": "tokenId",
          "type": "uint256"
        }
      ],
      "name": "Transfer",
      "type": "event"
    },
    {
      "anonymous": false,
      "inputs": [
        {
          "indexed": false,
          "internalType": "address",
          "name": "from",
          "type": "address"
        }
      ],
      "name": "Unpaused",
      "type": "event"
    },
    {
      "inputs": [
        {
          "internalType": "address",
          "name": "to",
          "type": "address"
        },
        {
          "internalType": "uint256",
          "name": "tokenId",
          "type": "uint256"
        }
      ],
      "name": "approve",
      "outputs": [],
      "stateMutability": "nonpayable",
      "type": "function"
    },
    {
      "inputs": [
        {
          "internalType": "address",
          "name": "owner",
          "type": "address"
        }
      ],
      "name": "balanceOf",
      "outputs": [
        {
          "internalType": "uint256",
          "name": "",
          "type": "uint256"
        }
      ],
      "stateMutability": "view",
      "type": "function"
    },
    {
      "inputs": [
        {
          "internalType": "uint256",
          "name": "tokenId",
          "type": "uint256"
        }
      ],
      "name": "getApproved",
      "outputs": [
        {
          "internalType": "address",
          "name": "",
          "type": "address"
        }
      ],
      "stateMutability": "view",
      "type": "function"
    },
    {
      "inputs": [
        {
          "internalType": "address",
          "name": "owner",
          "type": "address"
        },
        {
          "internalType": "address",
          "name": "operator",
          "type": "address"
        }
      ],
      "name": "isApprovedForAll",
      "outputs": [
        {
          "internalType": "bool",
          "name": "",
          "type": "bool"
        }
      ],
      "stateMutability": "view",
      "type": "function"
    },
    {
      "inputs": [],
      "name": "owner",
      "outputs": [
        {
          "internalType": "address",
          "name": "",
          "type": "address"
        }
      ],
      "stateMutability": "view",
      "type": "function"
    },
    {
      "inputs": [
        {
          "internalType": "uint256",
          "name": "tokenId",
          "type": "uint256"
        }
      ],
      "name": "ownerOf",
      "outputs": [
        {
          "internalType": "address",
          "name": "",
          "type": "address"
        }
      ],
      "stateMutability": "view",
      "type": "function"
    },
    {
      "inputs": [],
      "name": "pause",
      "outputs": [],
      "stateMutability": "nonpayable",
      "type": "function"
    },
    {
      "inputs": [],
      "name": "renounceOwnership",
      "outputs": [],
      "stateMutability": "nonpayable",
      "type": "function"
    },
    {
      "inputs": [
        {
          "internalType": "address",
          "name": "from",
          "type": "address"
        },
        {
          "internalType": "address",
          "name": "to",
          "type": "address"
        },
        {
          "internalType": "uint256",
          "name": "tokenId",
          "type": "uint256"
        }
      ],
      "name": "safeTransferFrom",
      "outputs": [],
      "stateMutability": "nonpayable",
      "type": "function"
    },
    {
      "inputs": [
        {
          "internalType": "address",
          "name": "from",
          "type": "address"
        },
        {
          "internalType": "address",
          "name": "to",
          "type": "address"
        },
        {
          "internalType": "uint256",
          "name": "tokenId",
          "type": "uint256"
        },
        {
          "internalType": "bytes",
          "name": "_data",
          "type": "bytes"
        }
      ],
      "name": "safeTransferFrom",
      "outputs": [],
      "stateMutability": "nonpayable",
      "type": "function"
    },
    {
      "inputs": [
        {
          "internalType": "address",
          "name": "to",
          "type": "address"
        },
        {
          "internalType": "bool",
          "name": "approved",
          "type": "bool"
        }
      ],
      "name": "setApprovalForAll",
      "outputs": [],
      "stateMutability": "nonpayable",
      "type": "function"
    },
    {
      "inputs": [
        {
          "internalType": "bytes4",
          "name": "interfaceId",
          "type": "bytes4"
        }
      ],
      "name": "supportsInterface",
      "outputs": [
        {
          "internalType": "bool",
          "name": "",
          "type": "bool"
        }
      ],
      "stateMutability": "view",
      "type": "function"
    },
    {
      "inputs": [
        {
          "internalType": "uint256",
          "name": "index",
          "type": "uint256"
        }
      ],
      "name": "tokenByIndex",
      "outputs": [
        {
          "internalType": "uint256",
          "name": "",
          "type": "uint256"
        }
      ],
      "stateMutability": "view",
      "type": "function"
    },
    {
      "inputs": [
        {
          "internalType": "address",
          "name": "owner",
          "type": "address"
        },
        {
          "internalType": "uint256",
          "name": "index",
          "type": "uint256"
        }
      ],
      "name": "tokenOfOwnerByIndex",
      "outputs": [
        {
          "internalType": "uint256",
          "name": "",
          "type": "uint256"
        }
      ],
      "stateMutability": "view",
      "type": "function"
    },
    {
      "inputs": [],
      "name": "totalSupply",
      "outputs": [
        {
          "internalType": "uint256",
          "name": "",
          "type": "uint256"
        }
      ],
      "stateMutability": "view",
      "type": "function"
    },
    {
      "inputs": [
        {
          "internalType": "address",
          "name": "from",
          "type": "address"
        },
        {
          "internalType": "address",
          "name": "to",
          "type": "address"
        },
        {
          "internalType": "uint256",
          "name": "tokenId",
          "type": "uint256"
        }
      ],
      "name": "transferFrom",
      "outputs": [],
      "stateMutability": "nonpayable",
      "type": "function"
    },
    {
      "inputs": [
        {
          "internalType": "address",
          "name": "newOwner",
          "type": "address"
        }
      ],
      "name": "transferOwnership",
      "outputs": [],
      "stateMutability": "nonpayable",
      "type": "function"
    },
    {
      "inputs": [],
      "name": "unpause",
      "outputs": [],
      "stateMutability": "nonpayable",
      "type": "function"
    },
    {
      "inputs": [],
      "name": "getName",
      "outputs": [
        {
          "internalType": "string",
          "name": "",
          "type": "string"
        }
      ],
      "stateMutability": "view",
      "type": "function"
    },
    {
      "inputs": [],
      "name": "getSymbol",
      "outputs": [
        {
          "internalType": "string",
          "name": "",
          "type": "string"
        }
      ],
      "stateMutability": "view",
      "type": "function"
    },
    {
      "inputs": [],
      "name": "getBaseTokenURI",
      "outputs": [
        {
          "internalType": "string",
          "name": "",
          "type": "string"
        }
      ],
      "stateMutability": "view",
      "type": "function"
    },
    {
      "inputs": [
        {
          "internalType": "uint256",
          "name": "tokenId",
          "type": "uint256"
        }
      ],
      "name": "tokenURI",
      "outputs": [
        {
          "internalType": "string",
          "name": "",
          "type": "string"
        }
      ],
      "stateMutability": "view",
      "type": "function"
    },
    {
      "inputs": [
        {
          "internalType": "uint256",
          "name": "tokenId",
          "type": "uint256"
        }
      ],
      "name": "setTokenURI",
      "outputs": [],
      "stateMutability": "nonpayable",
      "type": "function"
    }
  ],
  "bytecode": "0x60806040523480156200001157600080fd5b50604051620031b4380380620031b48339818101604052810190620000379190620004c3565b620000576200004b6200010b60201b60201c565b6200011360201b60201c565b6200006f6301ffc9a760e01b620001d760201b60201c565b620000876380ac58cd60e01b620001d760201b60201c565b6200009f63780e9d6360e01b620001d760201b60201c565b82600a9080519060200190620000b792919062000276565b5081600b9080519060200190620000d092919062000276565b5080600c9080519060200190620000e992919062000276565b5062000102635b5e139f60e01b620001d760201b60201c565b505050620005e0565b600033905090565b60008060009054906101000a900473ffffffffffffffffffffffffffffffffffffffff169050816000806101000a81548173ffffffffffffffffffffffffffffffffffffffff021916908373ffffffffffffffffffffffffffffffffffffffff1602179055508173ffffffffffffffffffffffffffffffffffffffff168173ffffffffffffffffffffffffffffffffffffffff167f8be0079c531659141344cd1fd0a4f28419497f9722a3daafe3b4186f6b6457e060405160405180910390a35050565b63ffffffff60e01b817bffffffffffffffffffffffffffffffffffffffffffffffffffffffff1916036200020a57600080fd5b6001806000837bffffffffffffffffffffffffffffffffffffffffffffffffffffffff19167bffffffffffffffffffffffffffffffffffffffffffffffffffffffff1916815260200190815260200160002060006101000a81548160ff02191690831515021790555050565b8280546200028490620005ab565b90600052602060002090601f016020900481019282620002a85760008555620002f4565b82601f10620002c357805160ff1916838001178555620002f4565b82800160010185558215620002f4579182015b82811115620002f3578251825591602001919060010190620002d6565b5b50905062000303919062000307565b5090565b5b808211156200032257600081600090555060010162000308565b5090565b6000604051905090565b600080fd5b600080fd5b600080fd5b600080fd5b6000601f19601f8301169050919050565b7f4e487b7100000000000000000000000000000000000000000000000000000000600052604160045260246000fd5b6200038f8262000344565b810181811067ffffffffffffffff82111715620003b157620003b062000355565b5b80604052505050565b6000620003c662000326565b9050620003d4828262000384565b919050565b600067ffffffffffffffff821115620003f757620003f662000355565b5b620004028262000344565b9050602081019050919050565b60005b838110156200042f57808201518184015260208101905062000412565b838111156200043f576000848401525b50505050565b60006200045c6200045684620003d9565b620003ba565b9050828152602081018484840111156200047b576200047a6200033f565b5b620004888482856200040f565b509392505050565b600082601f830112620004a857620004a76200033a565b5b8151620004ba84826020860162000445565b91505092915050565b600080600060608486031215620004df57620004de62000330565b5b600084015167ffffffffffffffff8111156200050057620004ff62000335565b5b6200050e8682870162000490565b935050602084015167ffffffffffffffff81111562000532576200053162000335565b5b620005408682870162000490565b925050604084015167ffffffffffffffff81111562000564576200056362000335565b5b620005728682870162000490565b9150509250925092565b7f4e487b7100000000000000000000000000000000000000000000000000000000600052602260045260246000fd5b60006002820490506001821680620005c457607f821691505b602082108103620005da57620005d96200057c565b5b50919050565b612bc480620005f06000396000f3fe608060405234801561001057600080fd5b506004361061014d5760003560e01c80636352211e116100c3578063b88d4fde1161007c578063b88d4fde14610378578063bdc32be014610394578063bff26126146103b2578063c87b56dd146103ce578063e985e9c5146103fe578063f2fde38b1461042e5761014d565b80636352211e146102ca57806370a08231146102fa578063715018a61461032a5780638456cb59146103345780638da5cb5b1461033e578063a22cb4651461035c5761014d565b806318160ddd1161011557806318160ddd1461020a57806323b872dd146102285780632f745c59146102445780633f4ba83a1461027457806342842e0e1461027e5780634f6ccce71461029a5761014d565b806301ffc9a714610152578063081812fc14610182578063095ea7b3146101b257806315070401146101ce57806317d7de7c146101ec575b600080fd5b61016c60048036038101906101679190611cad565b61044a565b6040516101799190611cf5565b60405180910390f35b61019c60048036038101906101979190611d46565b6104b2565b6040516101a99190611db4565b60405180910390f35b6101cc60048036038101906101c79190611dfb565b6104ef565b005b6101d661069b565b6040516101e39190611ed4565b60405180910390f35b6101f461072d565b6040516102019190611ed4565b60405180910390f35b6102126107bf565b60405161021f9190611f05565b60405180910390f35b610242600480360381019061023d9190611f20565b6107cc565b005b61025e60048036038101906102599190611dfb565b610825565b60405161026b9190611f05565b60405180910390f35b61027c61089f565b005b61029860048036038101906102939190611f20565b6109bd565b005b6102b460048036038101906102af9190611d46565b6109dd565b6040516102c19190611f05565b60405180910390f35b6102e460048036038101906102df9190611d46565b610a18565b6040516102f19190611db4565b60405180910390f35b610314600480360381019061030f9190611f73565b610a55565b6040516103219190611f05565b60405180910390f35b610332610aa5565b005b61033c610b2d565b005b610346610c53565b6040516103539190611db4565b60405180910390f35b61037660048036038101906103719190611fcc565b610c7c565b005b610392600480360381019061038d9190612141565b610de7565b005b61039c610e0d565b6040516103a99190611ed4565b60405180910390f35b6103cc60048036038101906103c79190611d46565b610e9f565b005b6103e860048036038101906103e39190611d46565b610fb4565b6040516103f59190611ed4565b60405180910390f35b610418600480360381019061041391906121c4565b6110a1565b6040516104259190611cf5565b60405180910390f35b61044860048036038101906104439190611f73565b611135565b005b600060016000837bffffffffffffffffffffffffffffffffffffffffffffffffffffffff19167bffffffffffffffffffffffffffffffffffffffffffffffffffffffff1916815260200190815260200160002060009054906101000a900460ff169050919050565b60006003600083815260200190815260200160002060009054906101000a900473ffffffffffffffffffffffffffffffffffffffff169050919050565b60006104fa82610a18565b90508073ffffffffffffffffffffffffffffffffffffffff168373ffffffffffffffffffffffffffffffffffffffff160361056a576040517f08c379a000000000000000000000000000000000000000000000000000000000815260040161056190612276565b60405180910390fd5b3373ffffffffffffffffffffffffffffffffffffffff168173ffffffffffffffffffffffffffffffffffffffff1614806105aa57506105a981336110a1565b5b6105e9576040517f08c379a00000000000000000000000000000000000000000000000000000000081526004016105e090612308565b60405180910390fd5b826003600084815260200190815260200160002060006101000a81548173ffffffffffffffffffffffffffffffffffffffff021916908373ffffffffffffffffffffffffffffffffffffffff160217905550818373ffffffffffffffffffffffffffffffffffffffff168273ffffffffffffffffffffffffffffffffffffffff167f8c5be1e5ebec7d5bd14f71427d1e84f3dd0314c0f7b2291e5b200ac8c7c3b92560405160405180910390a4505050565b6060600b80546106aa90612357565b80601f01602080910402602001604051908101604052809291908181526020018280546106d690612357565b80156107235780601f106106f857610100808354040283529160200191610723565b820191906000526020600020905b81548152906001019060200180831161070657829003601f168201915b5050505050905090565b6060600a805461073c90612357565b80601f016020809104026020016040519081016040528092919081815260200182805461076890612357565b80156107b55780601f1061078a576101008083540402835291602001916107b5565b820191906000526020600020905b81548152906001019060200180831161079857829003601f168201915b5050505050905090565b6000600880549050905090565b6107d6338261122c565b610815576040517f08c379a000000000000000000000000000000000000000000000000000000000815260040161080c906123d4565b60405180910390fd5b6108208383836112c1565b505050565b600061083083610a55565b821061083b57600080fd5b600660008473ffffffffffffffffffffffffffffffffffffffff1673ffffffffffffffffffffffffffffffffffffffff168152602001908152602001600020828154811061088c5761088b6123f4565b5b9060005260206000200154905092915050565b6108a76112e5565b73ffffffffffffffffffffffffffffffffffffffff166108c5610c53565b73ffffffffffffffffffffffffffffffffffffffff161461091b576040517f08c379a00000000000000000000000000000000000000000000000000000000081526004016109129061246f565b60405180910390fd5b600060149054906101000a900460ff1661096a576040517f08c379a0000000000000000000000000000000000000000000000000000000008152600401610961906124db565b60405180910390fd5b60008060146101000a81548160ff0219169083151502179055507f5db9ee0a495bf2e6ff9c91a7834c1ba4fdd244a5e8aa4e537bd38aeae4b073aa336040516109b39190611db4565b60405180910390a1565b6109d883838360405180602001604052806000815250610de7565b505050565b60006109e76107bf565b82106109f257600080fd5b60088281548110610a0657610a056123f4565b5b90600052602060002001549050919050565b60006002600083815260200190815260200160002060009054906101000a900473ffffffffffffffffffffffffffffffffffffffff169050919050565b6000610a9e600460008473ffffffffffffffffffffffffffffffffffffffff1673ffffffffffffffffffffffffffffffffffffffff1681526020019081526020016000206112ed565b9050919050565b610aad6112e5565b73ffffffffffffffffffffffffffffffffffffffff16610acb610c53565b73ffffffffffffffffffffffffffffffffffffffff1614610b21576040517f08c379a0000000000000000000000000000000000000000000000000000000008152600401610b189061246f565b60405180910390fd5b610b2b60006112fb565b565b610b356112e5565b73ffffffffffffffffffffffffffffffffffffffff16610b53610c53565b73ffffffffffffffffffffffffffffffffffffffff1614610ba9576040517f08c379a0000000000000000000000000000000000000000000000000000000008152600401610ba09061246f565b60405180910390fd5b60001515600060149054906101000a900460ff16151514610bff576040517f08c379a0000000000000000000000000000000000000000000000000000000008152600401610bf690612547565b60405180910390fd5b6001600060146101000a81548160ff0219169083151502179055507f62e78cea01bee320cd4e420270b5ea74000d11b0c9f74754ebdbfc544b05a25833604051610c499190611db4565b60405180910390a1565b60008060009054906101000a900473ffffffffffffffffffffffffffffffffffffffff16905090565b3373ffffffffffffffffffffffffffffffffffffffff168273ffffffffffffffffffffffffffffffffffffffff1603610cea576040517f08c379a0000000000000000000000000000000000000000000000000000000008152600401610ce1906125b3565b60405180910390fd5b80600560003373ffffffffffffffffffffffffffffffffffffffff1673ffffffffffffffffffffffffffffffffffffffff16815260200190815260200160002060008473ffffffffffffffffffffffffffffffffffffffff1673ffffffffffffffffffffffffffffffffffffffff16815260200190815260200160002060006101000a81548160ff0219169083151502179055508173ffffffffffffffffffffffffffffffffffffffff163373ffffffffffffffffffffffffffffffffffffffff167f17307eab39ab6107e8899845ad3d59bd9653f200f220920489ca2b5937696c3183604051610ddb9190611cf5565b60405180910390a35050565b610df28484846107cc565b610dfe848484846113bf565b610e0757600080fd5b50505050565b6060600c8054610e1c90612357565b80601f0160208091040260200160405190810160405280929190818152602001828054610e4890612357565b8015610e955780601f10610e6a57610100808354040283529160200191610e95565b820191906000526020600020905b815481529060010190602001808311610e7857829003601f168201915b5050505050905090565b610ea8816114c7565b610ee7576040517f08c379a0000000000000000000000000000000000000000000000000000000008152600401610ede9061261f565b60405180910390fd5b60003073ffffffffffffffffffffffffffffffffffffffff1663bdc32be06040518163ffffffff1660e01b8152600401600060405180830381865afa158015610f34573d6000803e3d6000fd5b505050506040513d6000823e3d601f19601f82011682018060405250810190610f5d91906126e0565b610f6683611539565b604051602001610f77929190612765565b604051602081830303815290604052905080600d60008481526020019081526020016000209080519060200190610faf929190611b9e565b505050565b6060610fbf826114c7565b610ffe576040517f08c379a0000000000000000000000000000000000000000000000000000000008152600401610ff59061261f565b60405180910390fd5b600d6000838152602001908152602001600020805461101c90612357565b80601f016020809104026020016040519081016040528092919081815260200182805461104890612357565b80156110955780601f1061106a57610100808354040283529160200191611095565b820191906000526020600020905b81548152906001019060200180831161107857829003601f168201915b50505050509050919050565b6000600560008473ffffffffffffffffffffffffffffffffffffffff1673ffffffffffffffffffffffffffffffffffffffff16815260200190815260200160002060008373ffffffffffffffffffffffffffffffffffffffff1673ffffffffffffffffffffffffffffffffffffffff16815260200190815260200160002060009054906101000a900460ff16905092915050565b61113d6112e5565b73ffffffffffffffffffffffffffffffffffffffff1661115b610c53565b73ffffffffffffffffffffffffffffffffffffffff16146111b1576040517f08c379a00000000000000000000000000000000000000000000000000000000081526004016111a89061246f565b60405180910390fd5b600073ffffffffffffffffffffffffffffffffffffffff168173ffffffffffffffffffffffffffffffffffffffff1603611220576040517f08c379a0000000000000000000000000000000000000000000000000000000008152600401611217906127fb565b60405180910390fd5b611229816112fb565b50565b60008061123883610a18565b90508073ffffffffffffffffffffffffffffffffffffffff168473ffffffffffffffffffffffffffffffffffffffff1614806112a757508373ffffffffffffffffffffffffffffffffffffffff1661128f846104b2565b73ffffffffffffffffffffffffffffffffffffffff16145b806112b857506112b781856110a1565b5b91505092915050565b6112cc838383611699565b6112d683826118ce565b6112e08282611a45565b505050565b600033905090565b600081600001549050919050565b60008060009054906101000a900473ffffffffffffffffffffffffffffffffffffffff169050816000806101000a81548173ffffffffffffffffffffffffffffffffffffffff021916908373ffffffffffffffffffffffffffffffffffffffff1602179055508173ffffffffffffffffffffffffffffffffffffffff168173ffffffffffffffffffffffffffffffffffffffff167f8be0079c531659141344cd1fd0a4f28419497f9722a3daafe3b4186f6b6457e060405160405180910390a35050565b60006113e08473ffffffffffffffffffffffffffffffffffffffff16611b09565b6113ed57600190506114bf565b60008473ffffffffffffffffffffffffffffffffffffffff1663150b7a02338887876040518563ffffffff1660e01b815260040161142e9493929190612870565b6020604051808303816000875af115801561144d573d6000803e3d6000fd5b505050506040513d601f19601f8201168201806040525081019061147191906128d1565b905063150b7a0260e01b7bffffffffffffffffffffffffffffffffffffffffffffffffffffffff1916817bffffffffffffffffffffffffffffffffffffffffffffffffffffffff1916149150505b949350505050565b6000806002600084815260200190815260200160002060009054906101000a900473ffffffffffffffffffffffffffffffffffffffff169050600073ffffffffffffffffffffffffffffffffffffffff168173ffffffffffffffffffffffffffffffffffffffff161415915050919050565b606060008203611580576040518060400160405280600181526020017f30000000000000000000000000000000000000000000000000000000000000008152509050611694565b600082905060005b600082146115b257808061159b9061292d565b915050600a826115ab91906129a4565b9150611588565b60008167ffffffffffffffff8111156115ce576115cd612016565b5b6040519080825280601f01601f1916602001820160405280156116005781602001600182028036833780820191505090505b5090505b6000851461168d5760018261161991906129d5565b9150600a856116289190612a09565b60306116349190612a3a565b60f81b81838151811061164a576116496123f4565b5b60200101907effffffffffffffffffffffffffffffffffffffffffffffffffffffffffffff1916908160001a905350600a8561168691906129a4565b9450611604565b8093505050505b919050565b6002600082815260200190815260200160002060009054906101000a900473ffffffffffffffffffffffffffffffffffffffff1673ffffffffffffffffffffffffffffffffffffffff168373ffffffffffffffffffffffffffffffffffffffff161461173a576040517f08c379a000000000000000000000000000000000000000000000000000000000815260040161173190612b02565b60405180910390fd5b60006003600083815260200190815260200160002060006101000a81548173ffffffffffffffffffffffffffffffffffffffff021916908373ffffffffffffffffffffffffffffffffffffffff1602179055506117d4600460008573ffffffffffffffffffffffffffffffffffffffff1673ffffffffffffffffffffffffffffffffffffffff168152602001908152602001600020611b2c565b816002600083815260200190815260200160002060006101000a81548173ffffffffffffffffffffffffffffffffffffffff021916908373ffffffffffffffffffffffffffffffffffffffff16021790555061186d600460008473ffffffffffffffffffffffffffffffffffffffff1673ffffffffffffffffffffffffffffffffffffffff168152602001908152602001600020611b88565b808273ffffffffffffffffffffffffffffffffffffffff16600073ffffffffffffffffffffffffffffffffffffffff167fddf252ad1be2c89b69c2b068fc378daa952ba7f163c4a11628f55a4df523b3ef60405160405180910390a4505050565b600060016118db84610a55565b6118e591906129d5565b90506000600760008481526020019081526020016000205490508181146119e0576000600660008673ffffffffffffffffffffffffffffffffffffffff1673ffffffffffffffffffffffffffffffffffffffff1681526020019081526020016000208381548110611959576119586123f4565b5b9060005260206000200154905080600660008773ffffffffffffffffffffffffffffffffffffffff1673ffffffffffffffffffffffffffffffffffffffff16815260200190815260200160002083815481106119b8576119b76123f4565b5b9060005260206000200181905550816007600083815260200190815260200160002081905550505b600660008573ffffffffffffffffffffffffffffffffffffffff1673ffffffffffffffffffffffffffffffffffffffff1681526020019081526020016000208281548110611a3157611a306123f4565b5b906000526020600020016000905550505050565b600660008373ffffffffffffffffffffffffffffffffffffffff1673ffffffffffffffffffffffffffffffffffffffff168152602001908152602001600020805490506007600083815260200190815260200160002081905550600660008373ffffffffffffffffffffffffffffffffffffffff1673ffffffffffffffffffffffffffffffffffffffff1681526020019081526020016000208190806001815401808255809150506001900390600052602060002001600090919091909150555050565b6000808273ffffffffffffffffffffffffffffffffffffffff163b119050919050565b60008160000154905060008111611b78576040517f08c379a0000000000000000000000000000000000000000000000000000000008152600401611b6f90612b6e565b60405180910390fd5b6001810382600001819055505050565b6001816000016000828254019250508190555050565b828054611baa90612357565b90600052602060002090601f016020900481019282611bcc5760008555611c13565b82601f10611be557805160ff1916838001178555611c13565b82800160010185558215611c13579182015b82811115611c12578251825591602001919060010190611bf7565b5b509050611c209190611c24565b5090565b5b80821115611c3d576000816000905550600101611c25565b5090565b6000604051905090565b600080fd5b600080fd5b60007fffffffff0000000000000000000000000000000000000000000000000000000082169050919050565b611c8a81611c55565b8114611c9557600080fd5b50565b600081359050611ca781611c81565b92915050565b600060208284031215611cc357611cc2611c4b565b5b6000611cd184828501611c98565b91505092915050565b60008115159050919050565b611cef81611cda565b82525050565b6000602082019050611d0a6000830184611ce6565b92915050565b6000819050919050565b611d2381611d10565b8114611d2e57600080fd5b50565b600081359050611d4081611d1a565b92915050565b600060208284031215611d5c57611d5b611c4b565b5b6000611d6a84828501611d31565b91505092915050565b600073ffffffffffffffffffffffffffffffffffffffff82169050919050565b6000611d9e82611d73565b9050919050565b611dae81611d93565b82525050565b6000602082019050611dc96000830184611da5565b92915050565b611dd881611d93565b8114611de357600080fd5b50565b600081359050611df581611dcf565b92915050565b60008060408385031215611e1257611e11611c4b565b5b6000611e2085828601611de6565b9250506020611e3185828601611d31565b9150509250929050565b600081519050919050565b600082825260208201905092915050565b60005b83811015611e75578082015181840152602081019050611e5a565b83811115611e84576000848401525b50505050565b6000601f19601f8301169050919050565b6000611ea682611e3b565b611eb08185611e46565b9350611ec0818560208601611e57565b611ec981611e8a565b840191505092915050565b60006020820190508181036000830152611eee8184611e9b565b905092915050565b611eff81611d10565b82525050565b6000602082019050611f1a6000830184611ef6565b92915050565b600080600060608486031215611f3957611f38611c4b565b5b6000611f4786828701611de6565b9350506020611f5886828701611de6565b9250506040611f6986828701611d31565b9150509250925092565b600060208284031215611f8957611f88611c4b565b5b6000611f9784828501611de6565b91505092915050565b611fa981611cda565b8114611fb457600080fd5b50565b600081359050611fc681611fa0565b92915050565b60008060408385031215611fe357611fe2611c4b565b5b6000611ff185828601611de6565b925050602061200285828601611fb7565b9150509250929050565b600080fd5b600080fd5b7f4e487b7100000000000000000000000000000000000000000000000000000000600052604160045260246000fd5b61204e82611e8a565b810181811067ffffffffffffffff8211171561206d5761206c612016565b5b80604052505050565b6000612080611c41565b905061208c8282612045565b919050565b600067ffffffffffffffff8211156120ac576120ab612016565b5b6120b582611e8a565b9050602081019050919050565b82818337600083830152505050565b60006120e46120df84612091565b612076565b905082815260208101848484011115612100576120ff612011565b5b61210b8482856120c2565b509392505050565b600082601f8301126121285761212761200c565b5b81356121388482602086016120d1565b91505092915050565b6000806000806080858703121561215b5761215a611c4b565b5b600061216987828801611de6565b945050602061217a87828801611de6565b935050604061218b87828801611d31565b925050606085013567ffffffffffffffff8111156121ac576121ab611c50565b5b6121b887828801612113565b91505092959194509250565b600080604083850312156121db576121da611c4b565b5b60006121e985828601611de6565b92505060206121fa85828601611de6565b9150509250929050565b7f726571756972652074686520676976656e206164647265737320746f206e6f7460008201527f20626520746865206f776e6572206f662074686520746f6b656e496400000000602082015250565b6000612260603c83611e46565b915061226b82612204565b604082019050919050565b6000602082019050818103600083015261228f81612253565b9050919050565b7f6d73672073656e646572206e6f7420746865206f776e6572206f66207468652060008201527f636f6e7472616374206f72206e6f7420617070726f76656420666f7220616c6c602082015250565b60006122f2604083611e46565b91506122fd82612296565b604082019050919050565b60006020820190508181036000830152612321816122e5565b9050919050565b7f4e487b7100000000000000000000000000000000000000000000000000000000600052602260045260246000fd5b6000600282049050600182168061236f57607f821691505b60208210810361238257612381612328565b5b50919050565b7f4f776e6572206e6565647320746f20626520617070726f766564000000000000600082015250565b60006123be601a83611e46565b91506123c982612388565b602082019050919050565b600060208201905081810360008301526123ed816123b1565b9050919050565b7f4e487b7100000000000000000000000000000000000000000000000000000000600052603260045260246000fd5b7f4f776e61626c653a2063616c6c6572206973206e6f7420746865206f776e6572600082015250565b6000612459602083611e46565b915061246482612423565b602082019050919050565b600060208201905081810360008301526124888161244c565b9050919050565b7f436f6e7472616374207061757365640000000000000000000000000000000000600082015250565b60006124c5600f83611e46565b91506124d08261248f565b602082019050919050565b600060208201905081810360008301526124f4816124b8565b9050919050565b7f436f6e7472616374206e6f742070617573656400000000000000000000000000600082015250565b6000612531601383611e46565b915061253c826124fb565b602082019050919050565b6000602082019050818103600083015261256081612524565b9050919050565b7f746f206e6f74206d73672e73656e646572000000000000000000000000000000600082015250565b600061259d601183611e46565b91506125a882612567565b602082019050919050565b600060208201905081810360008301526125cc81612590565b9050919050565b7f546f6b656e20696420646f6573206e6f74206578697374000000000000000000600082015250565b6000612609601783611e46565b9150612614826125d3565b602082019050919050565b60006020820190508181036000830152612638816125fc565b9050919050565b600067ffffffffffffffff82111561265a57612659612016565b5b61266382611e8a565b9050602081019050919050565b600061268361267e8461263f565b612076565b90508281526020810184848401111561269f5761269e612011565b5b6126aa848285611e57565b509392505050565b600082601f8301126126c7576126c661200c565b5b81516126d7848260208601612670565b91505092915050565b6000602082840312156126f6576126f5611c4b565b5b600082015167ffffffffffffffff81111561271457612713611c50565b5b612720848285016126b2565b91505092915050565b600081905092915050565b600061273f82611e3b565b6127498185612729565b9350612759818560208601611e57565b80840191505092915050565b60006127718285612734565b915061277d8284612734565b91508190509392505050565b7f4f776e61626c653a206e6577206f776e657220697320746865207a65726f206160008201527f6464726573730000000000000000000000000000000000000000000000000000602082015250565b60006127e5602683611e46565b91506127f082612789565b604082019050919050565b60006020820190508181036000830152612814816127d8565b9050919050565b600081519050919050565b600082825260208201905092915050565b60006128428261281b565b61284c8185612826565b935061285c818560208601611e57565b61286581611e8a565b840191505092915050565b60006080820190506128856000830187611da5565b6128926020830186611da5565b61289f6040830185611ef6565b81810360608301526128b18184612837565b905095945050505050565b6000815190506128cb81611c81565b92915050565b6000602082840312156128e7576128e6611c4b565b5b60006128f5848285016128bc565b91505092915050565b7f4e487b7100000000000000000000000000000000000000000000000000000000600052601160045260246000fd5b600061293882611d10565b91507fffffffffffffffffffffffffffffffffffffffffffffffffffffffffffffffff820361296a576129696128fe565b5b600182019050919050565b7f4e487b7100000000000000000000000000000000000000000000000000000000600052601260045260246000fd5b60006129af82611d10565b91506129ba83611d10565b9250826129ca576129c9612975565b5b828204905092915050565b60006129e082611d10565b91506129eb83611d10565b9250828210156129fe576129fd6128fe565b5b828203905092915050565b6000612a1482611d10565b9150612a1f83611d10565b925082612a2f57612a2e612975565b5b828206905092915050565b6000612a4582611d10565b9150612a5083611d10565b9250827fffffffffffffffffffffffffffffffffffffffffffffffffffffffffffffffff03821115612a8557612a846128fe565b5b828201905092915050565b7f66726f6d2061646472657373206973206e6f7420746865206f776e6572206f6660008201527f2074686520676976656e20746f6b656e00000000000000000000000000000000602082015250565b6000612aec603083611e46565b9150612af782612a90565b604082019050919050565b60006020820190508181036000830152612b1b81612adf565b9050919050565b7f436f756e7465723a2064656372656d656e74206f766572666c6f770000000000600082015250565b6000612b58601b83611e46565b9150612b6382612b22565b602082019050919050565b60006020820190508181036000830152612b8781612b4b565b905091905056fea2646970667358221220935b895be03343a811282533e28eea4bb2ad7f66cb3ff487647c6e89a910d70864736f6c634300080d0033",
  "immutableReferences": {},
  "source": "pragma solidity ^0.8.13;\n\n\nimport '@openzeppelin/contracts/utils/Address.sol';\nimport \"@openzeppelin/contracts/utils/Counters.sol\";\nimport \"@openzeppelin/contracts/utils/math/SafeMath.sol\";\nimport \"@openzeppelin/contracts/utils/Strings.sol\";\nimport \"@openzeppelin/contracts/access/Ownable.sol\";\nimport \"@openzeppelin/contracts/token/ERC721/IERC721Receiver.sol\";\n\n\n\n\ncontract Pausable is Ownable {\n    bool private _paused;\n    \n    event Paused(address from);\n    event Unpaused(address from);\n\n\n\n    modifier whenPaused(){\n        require(_paused, 'Contract paused');\n        _;\n    }\n\n    modifier whenNotPaused(){\n        require(_paused == false, 'Contract not paused');\n        _;\n    }\n\n\n    function pause() public onlyOwner whenNotPaused {\n        _paused = true;\n        emit Paused(msg.sender);\n    }\n\n    function unpause() public onlyOwner whenPaused {\n        _paused = false;\n        emit Unpaused(msg.sender);\n    }\n}\n\ncontract ERC165 {\n    bytes4 private constant _INTERFACE_ID_ERC165 = 0x01ffc9a7;\n    /*\n     * 0x01ffc9a7 ===\n     *     bytes4(keccak256('supportsInterface(bytes4)'))\n     */\n\n    /**\n     * @dev a mapping of interface id to whether or not it's supported\n     */\n    mapping(bytes4 => bool) private _supportedInterfaces;\n\n    /**\n     * @dev A contract implementing SupportsInterfaceWithLookup\n     * implement ERC165 itself\n     */\n    constructor () {\n        _registerInterface(_INTERFACE_ID_ERC165);\n    }\n\n    /**\n     * @dev implement supportsInterface(bytes4) using a lookup table\n     */\n    function supportsInterface(bytes4 interfaceId) external view returns (bool) {\n        return _supportedInterfaces[interfaceId];\n    }\n\n    /**\n     * @dev internal method for registering an interface\n     */\n    function _registerInterface(bytes4 interfaceId) internal {\n        require(interfaceId != 0xffffffff);\n        _supportedInterfaces[interfaceId] = true;\n    }\n}\n\ncontract ERC721 is Pausable, ERC165 {\n\n    event Transfer(address indexed from, address indexed to, uint256 indexed tokenId);\n\n    event Approval(address indexed owner, address indexed approved, uint256 indexed tokenId);\n\n    event ApprovalForAll(address indexed owner, address indexed operator, bool approved);\n    \n    using SafeMath for uint256;\n    using Address for address;\n    using Counters for Counters.Counter;\n\n    // Equals to `bytes4(keccak256(\"onERC721Received(address,address,uint256,bytes)\"))`\n    // which can be also obtained as `IERC721Receiver(0).onERC721Received.selector`\n    bytes4 private constant _ERC721_RECEIVED = 0x150b7a02;\n\n    // Mapping from token ID to owner\n    mapping (uint256 => address) private _tokenOwner;\n\n    // Mapping from token ID to approved address\n    mapping (uint256 => address) private _tokenApprovals;\n\n    // Mapping from owner to number of owned token\n    // IMPORTANT: this mapping uses Counters lib which is used to protect overflow when incrementing/decrementing a uint\n    // use the following functions when interacting with Counters: increment(), decrement(), and current() to get the value\n    // see: https://github.com/OpenZeppelin/openzeppelin-solidity/blob/master/contracts/drafts/Counters.sol\n    mapping (address => Counters.Counter) private _ownedTokensCount;\n\n    // Mapping from owner to operator approvals\n    mapping (address => mapping (address => bool)) private _operatorApprovals;\n\n    bytes4 private constant _INTERFACE_ID_ERC721 = 0x80ac58cd;\n\n    constructor () {\n        // register the supported interfaces to conform to ERC721 via ERC165\n        _registerInterface(_INTERFACE_ID_ERC721);\n    }\n\n    function balanceOf(address owner) public view returns (uint256) {\n        return _ownedTokensCount[owner].current();\n    }\n\n    function ownerOf(uint256 tokenId) public view returns (address) {\n        return _tokenOwner[tokenId];\n    }\n\n//    @dev Approves another address to transfer the given token ID\n    function approve(address to, uint256 tokenId) public {\n        \n        address ownerToken =  ownerOf(tokenId);\n        require(to != ownerToken, \"require the given address to not be the owner of the tokenId\");\n\n        require(ownerToken == msg.sender || isApprovedForAll(ownerToken, msg.sender), \"msg sender not the owner of the contract or not approved for all\");\n        _tokenApprovals[tokenId] = to;\n        \n\n        emit Approval(ownerToken, to, tokenId);\n    }\n\n    function getApproved(uint256 tokenId) public view returns (address) {\n        return _tokenApprovals[tokenId];\n    }\n\n    /**\n     * @dev Sets or unsets the approval of a given operator\n     * An operator is allowed to transfer all tokens of the sender on their behalf\n     * @param to operator address to set the approval\n     * @param approved representing the status of the approval to be set\n     */\n    function setApprovalForAll(address to, bool approved) public {\n        require(to != msg.sender, \"to not msg.sender\");\n        _operatorApprovals[msg.sender][to] = approved;\n        emit ApprovalForAll(msg.sender, to, approved);\n    }\n\n    /**\n     * @dev Tells whether an operator is approved by a given owner\n     * @param owner owner address which you want to query the approval of\n     * @param operator operator address which you want to query the approval of\n     * @return bool whether the given operator is approved by the given owner\n     */\n    function isApprovedForAll(address owner, address operator) public view returns (bool) {\n        return _operatorApprovals[owner][operator];\n    }\n\n    function transferFrom(address from, address to, uint256 tokenId) public {\n        require(_isApprovedOrOwner(msg.sender, tokenId), \"Owner needs to be approved\");\n\n        _transferFrom(from, to, tokenId);\n    }\n\n    function safeTransferFrom(address from, address to, uint256 tokenId) public {\n        safeTransferFrom(from, to, tokenId, \"\");\n    }\n\n    function safeTransferFrom(address from, address to, uint256 tokenId, bytes memory _data) public {\n        transferFrom(from, to, tokenId);\n        require(_checkOnERC721Received(from, to, tokenId, _data));\n    }\n\n    /**\n     * @dev Returns whether the specified token exists\n     * @param tokenId uint256 ID of the token to query the existence of\n     * @return bool whether the token exists\n     */\n    function _exists(uint256 tokenId) internal view returns (bool) {\n        address owner = _tokenOwner[tokenId];\n        return owner != address(0);\n    }\n\n    /**\n     * @dev Returns whether the given spender can transfer a given token ID\n     * @param spender address of the spender to query\n     * @param tokenId uint256 ID of the token to be transferred\n     * @return bool whether the msg.sender is approved for the given token ID,\n     * is an operator of the owner, or is the owner of the token\n     */\n    function _isApprovedOrOwner(address spender, uint256 tokenId) internal view returns (bool) {\n        address owner = ownerOf(tokenId);\n        return (spender == owner || getApproved(tokenId) == spender || isApprovedForAll(owner, spender));\n    }\n\n    // @dev Internal function to mint a new token\n    // TIP: remember the functions to use for Counters. you can refresh yourself with the link above\n    function _mint(address to, uint256 tokenId) internal virtual {\n        \n        require(!_exists(tokenId), 'Token ID already exists');\n        require(to != address(0), 'not allowed to mint to 0 address');\n  \n        _tokenOwner[tokenId] = to;\n        _ownedTokensCount[to].increment();\n\n        emit Transfer(address(0), to, tokenId);\n\n    }\n\n    // @dev Internal function to transfer ownership of a given token ID to another address.\n    // TIP: remember the functions to use for Counters. you can refresh yourself with the link above\n    function _transferFrom(address from, address to, uint256 tokenId) internal virtual  {\n\n        require(from == _tokenOwner[tokenId], \"from address is not the owner of the given token\");\n\n        _tokenApprovals[tokenId] = address(0);\n        _ownedTokensCount[from].decrement();\n\n\n        _tokenOwner[tokenId] = to;\n        _ownedTokensCount[to].increment();\n\n        emit Transfer(address(0), to, tokenId);\n    }\n\n    /**\n     * @dev Internal function to invoke `onERC721Received` on a target address\n     * The call is not executed if the target address is not a contract\n     * @param from address representing the previous owner of the given token ID\n     * @param to target address that will receive the tokens\n     * @param tokenId uint256 ID of the token to be transferred\n     * @param _data bytes optional data to send along with the call\n     * @return bool whether the call correctly returned the expected magic value\n     */\n    function _checkOnERC721Received(address from, address to, uint256 tokenId, bytes memory _data)\n        internal returns (bool)\n    {\n        if (!to.isContract()) {\n            return true;\n        }\n\n        bytes4 retval = IERC721Receiver(to).onERC721Received(msg.sender, from, tokenId, _data);\n        return (retval == _ERC721_RECEIVED);\n    }\n\n    // @dev Private function to clear current approval of a given token ID\n    function _clearApproval(uint256 tokenId) private {\n        if (_tokenApprovals[tokenId] != address(0)) {\n            _tokenApprovals[tokenId] = address(0);\n        }\n    }\n}\n\ncontract ERC721Enumerable is ERC165, ERC721 {\n    // Mapping from owner to list of owned token IDs\n    mapping(address => uint256[]) private _ownedTokens;\n\n    // Mapping from token ID to index of the owner tokens list\n    mapping(uint256 => uint256) private _ownedTokensIndex;\n\n    // Array with all token ids, used for enumeration\n    uint256[] private _allTokens;\n\n    // Mapping from token id to position in the allTokens array\n    mapping(uint256 => uint256) private _allTokensIndex;\n\n    bytes4 private constant _INTERFACE_ID_ERC721_ENUMERABLE = 0x780e9d63;\n    /*\n     * 0x780e9d63 ===\n     *     bytes4(keccak256('totalSupply()')) ^\n     *     bytes4(keccak256('tokenOfOwnerByIndex(address,uint256)')) ^\n     *     bytes4(keccak256('tokenByIndex(uint256)'))\n     */\n\n    /**\n     * @dev Constructor function\n     */\n    constructor () {\n        // register the supported interface to conform to ERC721Enumerable via ERC165\n        _registerInterface(_INTERFACE_ID_ERC721_ENUMERABLE);\n    }\n\n    /**\n     * @dev Gets the token ID at a given index of the tokens list of the requested owner\n     * @param owner address owning the tokens list to be accessed\n     * @param index uint256 representing the index to be accessed of the requested tokens list\n     * @return uint256 token ID at the given index of the tokens list owned by the requested address\n     */\n    function tokenOfOwnerByIndex(address owner, uint256 index) public view returns (uint256) {\n        require(index < balanceOf(owner));\n        return _ownedTokens[owner][index];\n    }\n\n    /**\n     * @dev Gets the total amount of tokens stored by the contract\n     * @return uint256 representing the total amount of tokens\n     */\n    function totalSupply() public view returns (uint256) {\n        return _allTokens.length;\n    }\n\n    /**\n     * @dev Gets the token ID at a given index of all the tokens in this contract\n     * Reverts if the index is greater or equal to the total number of tokens\n     * @param index uint256 representing the index to be accessed of the tokens list\n     * @return uint256 token ID at the given index of the tokens list\n     */\n    function tokenByIndex(uint256 index) public view returns (uint256) {\n        require(index < totalSupply());\n        return _allTokens[index];\n    }\n\n    /**\n     * @dev Internal function to transfer ownership of a given token ID to another address.\n     * As opposed to transferFrom, this imposes no restrictions on msg.sender.\n     * @param from current owner of the token\n     * @param to address to receive the ownership of the given token ID\n     * @param tokenId uint256 ID of the token to be transferred\n     */\n    function _transferFrom(address from, address to, uint256 tokenId) internal override{\n        super._transferFrom(from, to, tokenId);\n\n        _removeTokenFromOwnerEnumeration(from, tokenId);\n\n        _addTokenToOwnerEnumeration(to, tokenId);\n    }\n\n    /**\n     * @dev Internal function to mint a new token\n     * Reverts if the given token ID already exists\n     * @param to address the beneficiary that will own the minted token\n     * @param tokenId uint256 ID of the token to be minted\n     */\n    function _mint(address to, uint256 tokenId) internal override{\n        super._mint(to, tokenId);\n\n        _addTokenToOwnerEnumeration(to, tokenId);\n\n        _addTokenToAllTokensEnumeration(tokenId);\n    }\n\n    /**\n     * @dev Gets the list of token IDs of the requested owner\n     * @param owner address owning the tokens\n     * @return uint256[] List of token IDs owned by the requested address\n     */\n    function _tokensOfOwner(address owner) internal view returns (uint256[] storage) {\n        return _ownedTokens[owner];\n    }\n\n    /**\n     * @dev Private function to add a token to this extension's ownership-tracking data structures.\n     * @param to address representing the new owner of the given token ID\n     * @param tokenId uint256 ID of the token to be added to the tokens list of the given address\n     */\n    function _addTokenToOwnerEnumeration(address to, uint256 tokenId) private {\n        _ownedTokensIndex[tokenId] = _ownedTokens[to].length;\n        _ownedTokens[to].push(tokenId);\n    }\n\n    /**\n     * @dev Private function to add a token to this extension's token tracking data structures.\n     * @param tokenId uint256 ID of the token to be added to the tokens list\n     */\n    function _addTokenToAllTokensEnumeration(uint256 tokenId) private {\n        _allTokensIndex[tokenId] = _allTokens.length;\n        _allTokens.push(tokenId);\n    }\n\n    /**\n     * @dev Private function to remove a token from this extension's ownership-tracking data structures. Note that\n     * while the token is not assigned a new owner, the _ownedTokensIndex mapping is _not_ updated: this allows for\n     * gas optimizations e.g. when performing a transfer operation (avoiding double writes).\n     * This has O(1) time complexity, but alters the order of the _ownedTokens array.\n     * @param from address representing the previous owner of the given token ID\n     * @param tokenId uint256 ID of the token to be removed from the tokens list of the given address\n     */\n    function _removeTokenFromOwnerEnumeration(address from, uint256 tokenId) private {\n        // To prevent a gap in from's tokens array, we store the last token in the index of the token to delete, and\n        // then delete the last slot (swap and pop).\n\n        uint256 lastTokenIndex = ERC721.balanceOf(from) - 1;\n        uint256 tokenIndex = _ownedTokensIndex[tokenId];\n\n        // When the token to delete is the last token, the swap operation is unnecessary\n        if (tokenIndex != lastTokenIndex) {\n            uint256 lastTokenId = _ownedTokens[from][lastTokenIndex];\n\n            _ownedTokens[from][tokenIndex] = lastTokenId; // Move the last token to the slot of the to-delete token\n            _ownedTokensIndex[lastTokenId] = tokenIndex; // Update the moved token's index\n        }\n\n        // This also deletes the contents at the last position of the array\n\n        delete _ownedTokens[from][lastTokenIndex];\n\n        // Note that _ownedTokensIndex[tokenId] hasn't been cleared: it still points to the old slot (now occupied by\n        // lastTokenId, or just over the end of the array if the token was the last one).\n    }\n\n    /**\n     * @dev Private function to remove a token from this extension's token tracking data structures.\n     * This has O(1) time complexity, but alters the order of the _allTokens array.\n     * @param tokenId uint256 ID of the token to be removed from the tokens list\n     */\n    function _removeTokenFromAllTokensEnumeration(uint256 tokenId) private {\n        // To prevent a gap in the tokens array, we store the last token in the index of the token to delete, and\n        // then delete the last slot (swap and pop).\n\n        uint256 lastTokenIndex = _allTokens.length - 1;\n        uint256 tokenIndex = _allTokensIndex[tokenId];\n\n        uint256 lastTokenId = _allTokens[lastTokenIndex];\n\n        _allTokens[tokenIndex] = lastTokenId; // Move the last token to the slot of the to-delete token\n        _allTokensIndex[lastTokenId] = tokenIndex; // Update the moved token's index\n\n        // This also deletes the contents at the last position of the array\n        delete _allTokensIndex[tokenId];\n        _allTokens.pop();\n\n    }\n}\n\ncontract ERC721Metadata is ERC721Enumerable {\n    \n    using Strings for uint256;\n    string private _name;\n    string private _symbol;\n    string private _baseTokenURI;\n\n    mapping(uint256 => string) _tokenURIs;\n\n    bytes4 private constant _INTERFACE_ID_ERC721_METADATA = 0x5b5e139f;\n\n    constructor (string memory name, string memory symbol, string memory baseTokenURI) {\n        _name = name;\n        _symbol = symbol;\n        _baseTokenURI = baseTokenURI;\n\n        _registerInterface(_INTERFACE_ID_ERC721_METADATA);\n    }\n\n\n    function getName() external view returns (string memory){\n        return _name;\n    }\n\n    function getSymbol() external view returns (string memory){\n        return _symbol;\n    }\n\n    function getBaseTokenURI() external view returns (string memory){\n        return _baseTokenURI;\n    }\n\n    function tokenURI(uint256 tokenId) external view returns (string memory) {\n        require(_exists(tokenId), \"Token id does not exist\");\n        return _tokenURIs[tokenId];\n    }\n\n\n    function setTokenURI(uint256 tokenId) public{\n        require(_exists(tokenId), \"Token id does not exist\");\n        string memory newURI = string(abi.encodePacked(this.getBaseTokenURI(), tokenId.toString()));        \n        _tokenURIs[tokenId] = newURI;\n    }\n}\n\ncontract CustomERC721Token is ERC721Metadata{\n\n        constructor() ERC721Metadata(\"Real Estate Token\", \n                                     \"RET\", \n                                     \"https://s3-us-west-2.amazonaws.com/udacity-blockchain/capstone/\"\n                                     ) \n        {}\n        function mint(address to, uint256 tokenId) public onlyOwner returns(bool)\n            {\n                _mint(to, tokenId);\n                setTokenURI(tokenId);\n                return true;\n            }\n\n\n}\n\n\n\n",
  "sourcePath": "/Users/alex/Documents/udacity-blockchain-engineer/Blockchain-Capstone-master/eth-contracts/contracts/ERC721Mintable.sol",
  "compiler": {
    "name": "solc",
    "version": "0.8.13+commit.abaa5c0e.Emscripten.clang"
  },
  "schemaVersion": "3.4.7",
  "updatedAt": "2022-04-30T20:37:52.606Z",
  "devdoc": {
    "kind": "dev",
    "methods": {
      "isApprovedForAll(address,address)": {
        "details": "Tells whether an operator is approved by a given owner",
        "params": {
          "operator": "operator address which you want to query the approval of",
          "owner": "owner address which you want to query the approval of"
        },
        "returns": {
          "_0": "bool whether the given operator is approved by the given owner"
        }
      },
      "owner()": {
        "details": "Returns the address of the current owner."
      },
      "renounceOwnership()": {
        "details": "Leaves the contract without owner. It will not be possible to call `onlyOwner` functions anymore. Can only be called by the current owner. NOTE: Renouncing ownership will leave the contract without an owner, thereby removing any functionality that is only available to the owner."
      },
      "setApprovalForAll(address,bool)": {
        "details": "Sets or unsets the approval of a given operator An operator is allowed to transfer all tokens of the sender on their behalf",
        "params": {
          "approved": "representing the status of the approval to be set",
          "to": "operator address to set the approval"
        }
      },
      "supportsInterface(bytes4)": {
        "details": "implement supportsInterface(bytes4) using a lookup table"
      },
      "tokenByIndex(uint256)": {
        "details": "Gets the token ID at a given index of all the tokens in this contract Reverts if the index is greater or equal to the total number of tokens",
        "params": {
          "index": "uint256 representing the index to be accessed of the tokens list"
        },
        "returns": {
          "_0": "uint256 token ID at the given index of the tokens list"
        }
      },
      "tokenOfOwnerByIndex(address,uint256)": {
        "details": "Gets the token ID at a given index of the tokens list of the requested owner",
        "params": {
          "index": "uint256 representing the index to be accessed of the requested tokens list",
          "owner": "address owning the tokens list to be accessed"
        },
        "returns": {
          "_0": "uint256 token ID at the given index of the tokens list owned by the requested address"
        }
      },
      "totalSupply()": {
        "details": "Gets the total amount of tokens stored by the contract",
        "returns": {
          "_0": "uint256 representing the total amount of tokens"
        }
      },
      "transferOwnership(address)": {
        "details": "Transfers ownership of the contract to a new account (`newOwner`). Can only be called by the current owner."
      }
    },
    "version": 1
  },
  "userdoc": {
    "kind": "user",
    "methods": {},
    "version": 1
  }
}