{
  "contractName": "SolnSquareVerifier",
  "abi": [
    {
      "inputs": [],
      "stateMutability": "nonpayable",
      "type": "constructor"
    },
    {
      "anonymous": false,
      "inputs": [
        {
          "indexed": true,
          "internalType": "address",
          "name": "owner",
          "type": "address"
        },
        {
          "indexed": true,
          "internalType": "address",
          "name": "approved",
          "type": "address"
        },
        {
          "indexed": true,
          "internalType": "uint256",
          "name": "tokenId",
          "type": "uint256"
        }
      ],
      "name": "Approval",
      "type": "event"
    },
    {
      "anonymous": false,
      "inputs": [
        {
          "indexed": true,
          "internalType": "address",
          "name": "owner",
          "type": "address"
        },
        {
          "indexed": true,
          "internalType": "address",
          "name": "operator",
          "type": "address"
        },
        {
          "indexed": false,
          "internalType": "bool",
          "name": "approved",
          "type": "bool"
        }
      ],
      "name": "ApprovalForAll",
      "type": "event"
    },
    {
      "anonymous": false,
      "inputs": [
        {
          "indexed": true,
          "internalType": "address",
          "name": "previousOwner",
          "type": "address"
        },
        {
          "indexed": true,
          "internalType": "address",
          "name": "newOwner",
          "type": "address"
        }
      ],
      "name": "OwnershipTransferred",
      "type": "event"
    },
    {
      "anonymous": false,
      "inputs": [
        {
          "indexed": false,
          "internalType": "address",
          "name": "from",
          "type": "address"
        }
      ],
      "name": "Paused",
      "type": "event"
    },
    {
      "anonymous": false,
      "inputs": [
        {
          "indexed": false,
          "internalType": "uint256",
          "name": "index",
          "type": "uint256"
        },
        {
          "indexed": false,
          "internalType": "address",
          "name": "addressSolution",
          "type": "address"
        }
      ],
      "name": "SolutionAdded",
      "type": "event"
    },
    {
      "anonymous": false,
      "inputs": [
        {
          "indexed": true,
          "internalType": "address",
          "name": "from",
          "type": "address"
        },
        {
          "indexed": true,
          "internalType": "address",
          "name": "to",
          "type": "address"
        },
        {
          "indexed": true,
          "internalType": "uint256",
          "name": "tokenId",
          "type": "uint256"
        }
      ],
      "name": "Transfer",
      "type": "event"
    },
    {
      "anonymous": false,
      "inputs": [
        {
          "indexed": false,
          "internalType": "address",
          "name": "from",
          "type": "address"
        }
      ],
      "name": "Unpaused",
      "type": "event"
    },
    {
      "inputs": [
        {
          "internalType": "address",
          "name": "to",
          "type": "address"
        },
        {
          "internalType": "uint256",
          "name": "tokenId",
          "type": "uint256"
        }
      ],
      "name": "approve",
      "outputs": [],
      "stateMutability": "nonpayable",
      "type": "function"
    },
    {
      "inputs": [
        {
          "internalType": "address",
          "name": "owner",
          "type": "address"
        }
      ],
      "name": "balanceOf",
      "outputs": [
        {
          "internalType": "uint256",
          "name": "",
          "type": "uint256"
        }
      ],
      "stateMutability": "view",
      "type": "function",
      "constant": true
    },
    {
      "inputs": [
        {
          "internalType": "uint256",
          "name": "tokenId",
          "type": "uint256"
        }
      ],
      "name": "getApproved",
      "outputs": [
        {
          "internalType": "address",
          "name": "",
          "type": "address"
        }
      ],
      "stateMutability": "view",
      "type": "function",
      "constant": true
    },
    {
      "inputs": [],
      "name": "getBaseTokenURI",
      "outputs": [
        {
          "internalType": "string",
          "name": "",
          "type": "string"
        }
      ],
      "stateMutability": "view",
      "type": "function",
      "constant": true
    },
    {
      "inputs": [],
      "name": "getName",
      "outputs": [
        {
          "internalType": "string",
          "name": "",
          "type": "string"
        }
      ],
      "stateMutability": "view",
      "type": "function",
      "constant": true
    },
    {
      "inputs": [],
      "name": "getSymbol",
      "outputs": [
        {
          "internalType": "string",
          "name": "",
          "type": "string"
        }
      ],
      "stateMutability": "view",
      "type": "function",
      "constant": true
    },
    {
      "inputs": [
        {
          "internalType": "address",
          "name": "owner",
          "type": "address"
        },
        {
          "internalType": "address",
          "name": "operator",
          "type": "address"
        }
      ],
      "name": "isApprovedForAll",
      "outputs": [
        {
          "internalType": "bool",
          "name": "",
          "type": "bool"
        }
      ],
      "stateMutability": "view",
      "type": "function",
      "constant": true
    },
    {
      "inputs": [
        {
          "internalType": "address",
          "name": "to",
          "type": "address"
        },
        {
          "internalType": "uint256",
          "name": "tokenId",
          "type": "uint256"
        }
      ],
      "name": "mint",
      "outputs": [
        {
          "internalType": "bool",
          "name": "",
          "type": "bool"
        }
      ],
      "stateMutability": "nonpayable",
      "type": "function"
    },
    {
      "inputs": [],
      "name": "owner",
      "outputs": [
        {
          "internalType": "address",
          "name": "",
          "type": "address"
        }
      ],
      "stateMutability": "view",
      "type": "function",
      "constant": true
    },
    {
      "inputs": [
        {
          "internalType": "uint256",
          "name": "tokenId",
          "type": "uint256"
        }
      ],
      "name": "ownerOf",
      "outputs": [
        {
          "internalType": "address",
          "name": "",
          "type": "address"
        }
      ],
      "stateMutability": "view",
      "type": "function",
      "constant": true
    },
    {
      "inputs": [],
      "name": "pause",
      "outputs": [],
      "stateMutability": "nonpayable",
      "type": "function"
    },
    {
      "inputs": [],
      "name": "renounceOwnership",
      "outputs": [],
      "stateMutability": "nonpayable",
      "type": "function"
    },
    {
      "inputs": [
        {
          "internalType": "address",
          "name": "from",
          "type": "address"
        },
        {
          "internalType": "address",
          "name": "to",
          "type": "address"
        },
        {
          "internalType": "uint256",
          "name": "tokenId",
          "type": "uint256"
        }
      ],
      "name": "safeTransferFrom",
      "outputs": [],
      "stateMutability": "nonpayable",
      "type": "function"
    },
    {
      "inputs": [
        {
          "internalType": "address",
          "name": "from",
          "type": "address"
        },
        {
          "internalType": "address",
          "name": "to",
          "type": "address"
        },
        {
          "internalType": "uint256",
          "name": "tokenId",
          "type": "uint256"
        },
        {
          "internalType": "bytes",
          "name": "_data",
          "type": "bytes"
        }
      ],
      "name": "safeTransferFrom",
      "outputs": [],
      "stateMutability": "nonpayable",
      "type": "function"
    },
    {
      "inputs": [
        {
          "internalType": "address",
          "name": "to",
          "type": "address"
        },
        {
          "internalType": "bool",
          "name": "approved",
          "type": "bool"
        }
      ],
      "name": "setApprovalForAll",
      "outputs": [],
      "stateMutability": "nonpayable",
      "type": "function"
    },
    {
      "inputs": [
        {
          "internalType": "uint256",
          "name": "tokenId",
          "type": "uint256"
        }
      ],
      "name": "setTokenURI",
      "outputs": [],
      "stateMutability": "nonpayable",
      "type": "function"
    },
    {
      "inputs": [
        {
          "internalType": "bytes4",
          "name": "interfaceId",
          "type": "bytes4"
        }
      ],
      "name": "supportsInterface",
      "outputs": [
        {
          "internalType": "bool",
          "name": "",
          "type": "bool"
        }
      ],
      "stateMutability": "view",
      "type": "function",
      "constant": true
    },
    {
      "inputs": [
        {
          "internalType": "uint256",
          "name": "index",
          "type": "uint256"
        }
      ],
      "name": "tokenByIndex",
      "outputs": [
        {
          "internalType": "uint256",
          "name": "",
          "type": "uint256"
        }
      ],
      "stateMutability": "view",
      "type": "function",
      "constant": true
    },
    {
      "inputs": [
        {
          "internalType": "address",
          "name": "owner",
          "type": "address"
        },
        {
          "internalType": "uint256",
          "name": "index",
          "type": "uint256"
        }
      ],
      "name": "tokenOfOwnerByIndex",
      "outputs": [
        {
          "internalType": "uint256",
          "name": "",
          "type": "uint256"
        }
      ],
      "stateMutability": "view",
      "type": "function",
      "constant": true
    },
    {
      "inputs": [
        {
          "internalType": "uint256",
          "name": "tokenId",
          "type": "uint256"
        }
      ],
      "name": "tokenURI",
      "outputs": [
        {
          "internalType": "string",
          "name": "",
          "type": "string"
        }
      ],
      "stateMutability": "view",
      "type": "function",
      "constant": true
    },
    {
      "inputs": [],
      "name": "totalSupply",
      "outputs": [
        {
          "internalType": "uint256",
          "name": "",
          "type": "uint256"
        }
      ],
      "stateMutability": "view",
      "type": "function",
      "constant": true
    },
    {
      "inputs": [
        {
          "internalType": "address",
          "name": "from",
          "type": "address"
        },
        {
          "internalType": "address",
          "name": "to",
          "type": "address"
        },
        {
          "internalType": "uint256",
          "name": "tokenId",
          "type": "uint256"
        }
      ],
      "name": "transferFrom",
      "outputs": [],
      "stateMutability": "nonpayable",
      "type": "function"
    },
    {
      "inputs": [
        {
          "internalType": "address",
          "name": "newOwner",
          "type": "address"
        }
      ],
      "name": "transferOwnership",
      "outputs": [],
      "stateMutability": "nonpayable",
      "type": "function"
    },
    {
      "inputs": [],
      "name": "unpause",
      "outputs": [],
      "stateMutability": "nonpayable",
      "type": "function"
    },
    {
      "inputs": [
        {
          "internalType": "uint256",
          "name": "index",
          "type": "uint256"
        },
        {
          "internalType": "address",
          "name": "addressSolution",
          "type": "address"
        }
      ],
      "name": "addSolution",
      "outputs": [],
      "stateMutability": "nonpayable",
      "type": "function"
    },
    {
      "inputs": [],
      "name": "getSolutions",
      "outputs": [
        {
          "components": [
            {
              "internalType": "uint256",
              "name": "index",
              "type": "uint256"
            },
            {
              "internalType": "address",
              "name": "addressSolution",
              "type": "address"
            }
          ],
          "internalType": "struct SolnSquareVerifier.Solution[]",
          "name": "",
          "type": "tuple[]"
        }
      ],
      "stateMutability": "view",
      "type": "function",
      "constant": true
    },
    {
      "inputs": [
        {
          "internalType": "uint256",
          "name": "tokenIndex",
          "type": "uint256"
        },
        {
          "components": [
            {
              "components": [
                {
                  "internalType": "uint256",
                  "name": "X",
                  "type": "uint256"
                },
                {
                  "internalType": "uint256",
                  "name": "Y",
                  "type": "uint256"
                }
              ],
              "internalType": "struct Pairing.G1Point",
              "name": "a",
              "type": "tuple"
            },
            {
              "components": [
                {
                  "internalType": "uint256[2]",
                  "name": "X",
                  "type": "uint256[2]"
                },
                {
                  "internalType": "uint256[2]",
                  "name": "Y",
                  "type": "uint256[2]"
                }
              ],
              "internalType": "struct Pairing.G2Point",
              "name": "b",
              "type": "tuple"
            },
            {
              "components": [
                {
                  "internalType": "uint256",
                  "name": "X",
                  "type": "uint256"
                },
                {
                  "internalType": "uint256",
                  "name": "Y",
                  "type": "uint256"
                }
              ],
              "internalType": "struct Pairing.G1Point",
              "name": "c",
              "type": "tuple"
            }
          ],
          "internalType": "struct Verifier.Proof",
          "name": "proof",
          "type": "tuple"
        },
        {
          "internalType": "uint256[2]",
          "name": "input",
          "type": "uint256[2]"
        }
      ],
      "name": "mintNFT",
      "outputs": [],
      "stateMutability": "nonpayable",
      "type": "function"
    }
  ],
  "bytecode": "0x60806040523480156200001157600080fd5b506040518060400160405280601181526020017f5265616c2045737461746520546f6b656e0000000000000000000000000000008152506040518060400160405280600381526020017f52455400000000000000000000000000000000000000000000000000000000008152506040518060600160405280603f81526020016200540d603f9139620000b8620000ac620001d860201b60201c565b620001e060201b60201c565b620000d06301ffc9a760e01b620002a460201b60201c565b620000e86380ac58cd60e01b620002a460201b60201c565b6200010063780e9d6360e01b620002a460201b60201c565b82600a90805190602001906200011892919062000343565b5081600b90805190602001906200013192919062000343565b5080600c90805190602001906200014a92919062000343565b5062000163635b5e139f60e01b620002a460201b60201c565b5050506040516200017490620003d4565b604051809103906000f08015801562000191573d6000803e3d6000fd5b50600e60006101000a81548173ffffffffffffffffffffffffffffffffffffffff021916908373ffffffffffffffffffffffffffffffffffffffff16021790555062000465565b600033905090565b60008060009054906101000a900473ffffffffffffffffffffffffffffffffffffffff169050816000806101000a81548173ffffffffffffffffffffffffffffffffffffffff021916908373ffffffffffffffffffffffffffffffffffffffff1602179055508173ffffffffffffffffffffffffffffffffffffffff168173ffffffffffffffffffffffffffffffffffffffff167f8be0079c531659141344cd1fd0a4f28419497f9722a3daafe3b4186f6b6457e060405160405180910390a35050565b63ffffffff60e01b817bffffffffffffffffffffffffffffffffffffffffffffffffffffffff191603620002d757600080fd5b6001806000837bffffffffffffffffffffffffffffffffffffffffffffffffffffffff19167bffffffffffffffffffffffffffffffffffffffffffffffffffffffff1916815260200190815260200160002060006101000a81548160ff02191690831515021790555050565b828054620003519062000430565b90600052602060002090601f016020900481019282620003755760008555620003c1565b82601f106200039057805160ff1916838001178555620003c1565b82800160010185558215620003c1579182015b82811115620003c0578251825591602001919060010190620003a3565b5b509050620003d09190620003e2565b5090565b6114cd8062003f4083390190565b5b80821115620003fd576000816000905550600101620003e3565b5090565b7f4e487b7100000000000000000000000000000000000000000000000000000000600052602260045260246000fd5b600060028204905060018216806200044957607f821691505b6020821081036200045f576200045e62000401565b5b50919050565b613acb80620004756000396000f3fe608060405234801561001057600080fd5b50600436106101a95760003560e01c80634f6ccce7116100f9578063b88d4fde11610097578063c87b56dd11610071578063c87b56dd14610494578063ccd0ef69146104c4578063e985e9c5146104e0578063f2fde38b14610510576101a9565b8063b88d4fde1461043e578063bdc32be01461045a578063bff2612614610478576101a9565b8063715018a6116100d3578063715018a6146103f05780638456cb59146103fa5780638da5cb5b14610404578063a22cb46514610422576101a9565b80634f6ccce7146103605780636352211e1461039057806370a08231146103c0576101a9565b806323b872dd11610166578063367c5adc11610140578063367c5adc146102ec5780633f4ba83a1461030a57806340c10f191461031457806342842e0e14610344576101a9565b806323b872dd1461028457806324ba2bde146102a05780632f745c59146102bc576101a9565b806301ffc9a7146101ae578063081812fc146101de578063095ea7b31461020e578063150704011461022a57806317d7de7c1461024857806318160ddd14610266575b600080fd5b6101c860048036038101906101c3919061245c565b61052c565b6040516101d591906124a4565b60405180910390f35b6101f860048036038101906101f391906124f5565b610594565b6040516102059190612563565b60405180910390f35b610228600480360381019061022391906125aa565b6105d1565b005b61023261077d565b60405161023f9190612683565b60405180910390f35b61025061080f565b60405161025d9190612683565b60405180910390f35b61026e6108a1565b60405161027b91906126b4565b60405180910390f35b61029e600480360381019061029991906126cf565b6108ae565b005b6102ba60048036038101906102b59190612962565b610907565b005b6102d660048036038101906102d191906125aa565b610b0b565b6040516102e391906126b4565b60405180910390f35b6102f4610b85565b6040516103019190612ab3565b60405180910390f35b610312610c44565b005b61032e600480360381019061032991906125aa565b610d62565b60405161033b91906124a4565b60405180910390f35b61035e600480360381019061035991906126cf565b610dfd565b005b61037a600480360381019061037591906124f5565b610e1d565b60405161038791906126b4565b60405180910390f35b6103aa60048036038101906103a591906124f5565b610e58565b6040516103b79190612563565b60405180910390f35b6103da60048036038101906103d59190612ad5565b610e95565b6040516103e791906126b4565b60405180910390f35b6103f8610ee5565b005b610402610f6d565b005b61040c611093565b6040516104199190612563565b60405180910390f35b61043c60048036038101906104379190612b2e565b6110bc565b005b61045860048036038101906104539190612c23565b611227565b005b61046261124d565b60405161046f9190612683565b60405180910390f35b610492600480360381019061048d91906124f5565b6112df565b005b6104ae60048036038101906104a991906124f5565b6113f4565b6040516104bb9190612683565b60405180910390f35b6104de60048036038101906104d99190612ca6565b6114e1565b005b6104fa60048036038101906104f59190612ce6565b611635565b60405161050791906124a4565b60405180910390f35b61052a60048036038101906105259190612ad5565b6116c9565b005b600060016000837bffffffffffffffffffffffffffffffffffffffffffffffffffffffff19167bffffffffffffffffffffffffffffffffffffffffffffffffffffffff1916815260200190815260200160002060009054906101000a900460ff169050919050565b60006003600083815260200190815260200160002060009054906101000a900473ffffffffffffffffffffffffffffffffffffffff169050919050565b60006105dc82610e58565b90508073ffffffffffffffffffffffffffffffffffffffff168373ffffffffffffffffffffffffffffffffffffffff160361064c576040517f08c379a000000000000000000000000000000000000000000000000000000000815260040161064390612d98565b60405180910390fd5b3373ffffffffffffffffffffffffffffffffffffffff168173ffffffffffffffffffffffffffffffffffffffff16148061068c575061068b8133611635565b5b6106cb576040517f08c379a00000000000000000000000000000000000000000000000000000000081526004016106c290612e2a565b60405180910390fd5b826003600084815260200190815260200160002060006101000a81548173ffffffffffffffffffffffffffffffffffffffff021916908373ffffffffffffffffffffffffffffffffffffffff160217905550818373ffffffffffffffffffffffffffffffffffffffff168273ffffffffffffffffffffffffffffffffffffffff167f8c5be1e5ebec7d5bd14f71427d1e84f3dd0314c0f7b2291e5b200ac8c7c3b92560405160405180910390a4505050565b6060600b805461078c90612e79565b80601f01602080910402602001604051908101604052809291908181526020018280546107b890612e79565b80156108055780601f106107da57610100808354040283529160200191610805565b820191906000526020600020905b8154815290600101906020018083116107e857829003601f168201915b5050505050905090565b6060600a805461081e90612e79565b80601f016020809104026020016040519081016040528092919081815260200182805461084a90612e79565b80156108975780601f1061086c57610100808354040283529160200191610897565b820191906000526020600020905b81548152906001019060200180831161087a57829003601f168201915b5050505050905090565b6000600880549050905090565b6108b833826117c0565b6108f7576040517f08c379a00000000000000000000000000000000000000000000000000000000081526004016108ee90612ef6565b60405180910390fd5b610902838383611855565b505050565b600073ffffffffffffffffffffffffffffffffffffffff166010600085815260200190815260200160002060010160009054906101000a900473ffffffffffffffffffffffffffffffffffffffff1673ffffffffffffffffffffffffffffffffffffffff16146109ac576040517f08c379a00000000000000000000000000000000000000000000000000000000081526004016109a390612f62565b60405180910390fd5b6000600e60009054906101000a900473ffffffffffffffffffffffffffffffffffffffff1673ffffffffffffffffffffffffffffffffffffffff166343cd76fc84846040518363ffffffff1660e01b8152600401610a0b929190613121565b602060405180830381865afa158015610a28573d6000803e3d6000fd5b505050506040513d601f19601f82011682018060405250810190610a4c9190613161565b905080610a8e576040517f08c379a0000000000000000000000000000000000000000000000000000000008152600401610a85906131da565b60405180910390fd5b3073ffffffffffffffffffffffffffffffffffffffff1663ccd0ef6985336040518363ffffffff1660e01b8152600401610ac99291906131fa565b600060405180830381600087803b158015610ae357600080fd5b505af1158015610af7573d6000803e3d6000fd5b50505050610b053385611879565b50505050565b6000610b1683610e95565b8210610b2157600080fd5b600660008473ffffffffffffffffffffffffffffffffffffffff1673ffffffffffffffffffffffffffffffffffffffff1681526020019081526020016000208281548110610b7257610b71613223565b5b9060005260206000200154905092915050565b6060600f805480602002602001604051908101604052809291908181526020016000905b82821015610c3b5783829060005260206000209060020201604051806040016040529081600082015481526020016001820160009054906101000a900473ffffffffffffffffffffffffffffffffffffffff1673ffffffffffffffffffffffffffffffffffffffff1673ffffffffffffffffffffffffffffffffffffffff168152505081526020019060010190610ba9565b50505050905090565b610c4c61189a565b73ffffffffffffffffffffffffffffffffffffffff16610c6a611093565b73ffffffffffffffffffffffffffffffffffffffff1614610cc0576040517f08c379a0000000000000000000000000000000000000000000000000000000008152600401610cb79061329e565b60405180910390fd5b600060149054906101000a900460ff16610d0f576040517f08c379a0000000000000000000000000000000000000000000000000000000008152600401610d069061330a565b60405180910390fd5b60008060146101000a81548160ff0219169083151502179055507f5db9ee0a495bf2e6ff9c91a7834c1ba4fdd244a5e8aa4e537bd38aeae4b073aa33604051610d589190612563565b60405180910390a1565b6000610d6c61189a565b73ffffffffffffffffffffffffffffffffffffffff16610d8a611093565b73ffffffffffffffffffffffffffffffffffffffff1614610de0576040517f08c379a0000000000000000000000000000000000000000000000000000000008152600401610dd79061329e565b60405180910390fd5b610dea8383611879565b610df3826112df565b6001905092915050565b610e1883838360405180602001604052806000815250611227565b505050565b6000610e276108a1565b8210610e3257600080fd5b60088281548110610e4657610e45613223565b5b90600052602060002001549050919050565b60006002600083815260200190815260200160002060009054906101000a900473ffffffffffffffffffffffffffffffffffffffff169050919050565b6000610ede600460008473ffffffffffffffffffffffffffffffffffffffff1673ffffffffffffffffffffffffffffffffffffffff1681526020019081526020016000206118a2565b9050919050565b610eed61189a565b73ffffffffffffffffffffffffffffffffffffffff16610f0b611093565b73ffffffffffffffffffffffffffffffffffffffff1614610f61576040517f08c379a0000000000000000000000000000000000000000000000000000000008152600401610f589061329e565b60405180910390fd5b610f6b60006118b0565b565b610f7561189a565b73ffffffffffffffffffffffffffffffffffffffff16610f93611093565b73ffffffffffffffffffffffffffffffffffffffff1614610fe9576040517f08c379a0000000000000000000000000000000000000000000000000000000008152600401610fe09061329e565b60405180910390fd5b60001515600060149054906101000a900460ff1615151461103f576040517f08c379a000000000000000000000000000000000000000000000000000000000815260040161103690613376565b60405180910390fd5b6001600060146101000a81548160ff0219169083151502179055507f62e78cea01bee320cd4e420270b5ea74000d11b0c9f74754ebdbfc544b05a258336040516110899190612563565b60405180910390a1565b60008060009054906101000a900473ffffffffffffffffffffffffffffffffffffffff16905090565b3373ffffffffffffffffffffffffffffffffffffffff168273ffffffffffffffffffffffffffffffffffffffff160361112a576040517f08c379a0000000000000000000000000000000000000000000000000000000008152600401611121906133e2565b60405180910390fd5b80600560003373ffffffffffffffffffffffffffffffffffffffff1673ffffffffffffffffffffffffffffffffffffffff16815260200190815260200160002060008473ffffffffffffffffffffffffffffffffffffffff1673ffffffffffffffffffffffffffffffffffffffff16815260200190815260200160002060006101000a81548160ff0219169083151502179055508173ffffffffffffffffffffffffffffffffffffffff163373ffffffffffffffffffffffffffffffffffffffff167f17307eab39ab6107e8899845ad3d59bd9653f200f220920489ca2b5937696c318360405161121b91906124a4565b60405180910390a35050565b6112328484846108ae565b61123e84848484611974565b61124757600080fd5b50505050565b6060600c805461125c90612e79565b80601f016020809104026020016040519081016040528092919081815260200182805461128890612e79565b80156112d55780601f106112aa576101008083540402835291602001916112d5565b820191906000526020600020905b8154815290600101906020018083116112b857829003601f168201915b5050505050905090565b6112e881611a7c565b611327576040517f08c379a000000000000000000000000000000000000000000000000000000000815260040161131e9061344e565b60405180910390fd5b60003073ffffffffffffffffffffffffffffffffffffffff1663bdc32be06040518163ffffffff1660e01b8152600401600060405180830381865afa158015611374573d6000803e3d6000fd5b505050506040513d6000823e3d601f19601f8201168201806040525081019061139d919061350f565b6113a683611aee565b6040516020016113b7929190613594565b604051602081830303815290604052905080600d600084815260200190815260200160002090805190602001906113ef92919061234d565b505050565b60606113ff82611a7c565b61143e576040517f08c379a00000000000000000000000000000000000000000000000000000000081526004016114359061344e565b60405180910390fd5b600d6000838152602001908152602001600020805461145c90612e79565b80601f016020809104026020016040519081016040528092919081815260200182805461148890612e79565b80156114d55780601f106114aa576101008083540402835291602001916114d5565b820191906000526020600020905b8154815290600101906020018083116114b857829003601f168201915b50505050509050919050565b600060405180604001604052808481526020018373ffffffffffffffffffffffffffffffffffffffff168152509050600f8190806001815401808255809150506001900390600052602060002090600202016000909190919091506000820151816000015560208201518160010160006101000a81548173ffffffffffffffffffffffffffffffffffffffff021916908373ffffffffffffffffffffffffffffffffffffffff160217905550505080601060008581526020019081526020016000206000820151816000015560208201518160010160006101000a81548173ffffffffffffffffffffffffffffffffffffffff021916908373ffffffffffffffffffffffffffffffffffffffff1602179055509050507f078793128cefb19aac38a33f9e5df39f67716907f6d747e8065545699e0b2b8d83836040516116289291906131fa565b60405180910390a1505050565b6000600560008473ffffffffffffffffffffffffffffffffffffffff1673ffffffffffffffffffffffffffffffffffffffff16815260200190815260200160002060008373ffffffffffffffffffffffffffffffffffffffff1673ffffffffffffffffffffffffffffffffffffffff16815260200190815260200160002060009054906101000a900460ff16905092915050565b6116d161189a565b73ffffffffffffffffffffffffffffffffffffffff166116ef611093565b73ffffffffffffffffffffffffffffffffffffffff1614611745576040517f08c379a000000000000000000000000000000000000000000000000000000000815260040161173c9061329e565b60405180910390fd5b600073ffffffffffffffffffffffffffffffffffffffff168173ffffffffffffffffffffffffffffffffffffffff16036117b4576040517f08c379a00000000000000000000000000000000000000000000000000000000081526004016117ab9061362a565b60405180910390fd5b6117bd816118b0565b50565b6000806117cc83610e58565b90508073ffffffffffffffffffffffffffffffffffffffff168473ffffffffffffffffffffffffffffffffffffffff16148061183b57508373ffffffffffffffffffffffffffffffffffffffff1661182384610594565b73ffffffffffffffffffffffffffffffffffffffff16145b8061184c575061184b8185611635565b5b91505092915050565b611860838383611c4e565b61186a8382611e83565b6118748282611ffa565b505050565b61188382826120be565b61188d8282611ffa565b6118968161226f565b5050565b600033905090565b600081600001549050919050565b60008060009054906101000a900473ffffffffffffffffffffffffffffffffffffffff169050816000806101000a81548173ffffffffffffffffffffffffffffffffffffffff021916908373ffffffffffffffffffffffffffffffffffffffff1602179055508173ffffffffffffffffffffffffffffffffffffffff168173ffffffffffffffffffffffffffffffffffffffff167f8be0079c531659141344cd1fd0a4f28419497f9722a3daafe3b4186f6b6457e060405160405180910390a35050565b60006119958473ffffffffffffffffffffffffffffffffffffffff166122b8565b6119a25760019050611a74565b60008473ffffffffffffffffffffffffffffffffffffffff1663150b7a02338887876040518563ffffffff1660e01b81526004016119e3949392919061369f565b6020604051808303816000875af1158015611a02573d6000803e3d6000fd5b505050506040513d601f19601f82011682018060405250810190611a269190613700565b905063150b7a0260e01b7bffffffffffffffffffffffffffffffffffffffffffffffffffffffff1916817bffffffffffffffffffffffffffffffffffffffffffffffffffffffff1916149150505b949350505050565b6000806002600084815260200190815260200160002060009054906101000a900473ffffffffffffffffffffffffffffffffffffffff169050600073ffffffffffffffffffffffffffffffffffffffff168173ffffffffffffffffffffffffffffffffffffffff161415915050919050565b606060008203611b35576040518060400160405280600181526020017f30000000000000000000000000000000000000000000000000000000000000008152509050611c49565b600082905060005b60008214611b67578080611b509061375c565b915050600a82611b6091906137d3565b9150611b3d565b60008167ffffffffffffffff811115611b8357611b82612727565b5b6040519080825280601f01601f191660200182016040528015611bb55781602001600182028036833780820191505090505b5090505b60008514611c4257600182611bce9190613804565b9150600a85611bdd9190613838565b6030611be99190613869565b60f81b818381518110611bff57611bfe613223565b5b60200101907effffffffffffffffffffffffffffffffffffffffffffffffffffffffffffff1916908160001a905350600a85611c3b91906137d3565b9450611bb9565b8093505050505b919050565b6002600082815260200190815260200160002060009054906101000a900473ffffffffffffffffffffffffffffffffffffffff1673ffffffffffffffffffffffffffffffffffffffff168373ffffffffffffffffffffffffffffffffffffffff1614611cef576040517f08c379a0000000000000000000000000000000000000000000000000000000008152600401611ce690613931565b60405180910390fd5b60006003600083815260200190815260200160002060006101000a81548173ffffffffffffffffffffffffffffffffffffffff021916908373ffffffffffffffffffffffffffffffffffffffff160217905550611d89600460008573ffffffffffffffffffffffffffffffffffffffff1673ffffffffffffffffffffffffffffffffffffffff1681526020019081526020016000206122db565b816002600083815260200190815260200160002060006101000a81548173ffffffffffffffffffffffffffffffffffffffff021916908373ffffffffffffffffffffffffffffffffffffffff160217905550611e22600460008473ffffffffffffffffffffffffffffffffffffffff1673ffffffffffffffffffffffffffffffffffffffff168152602001908152602001600020612337565b808273ffffffffffffffffffffffffffffffffffffffff16600073ffffffffffffffffffffffffffffffffffffffff167fddf252ad1be2c89b69c2b068fc378daa952ba7f163c4a11628f55a4df523b3ef60405160405180910390a4505050565b60006001611e9084610e95565b611e9a9190613804565b9050600060076000848152602001908152602001600020549050818114611f95576000600660008673ffffffffffffffffffffffffffffffffffffffff1673ffffffffffffffffffffffffffffffffffffffff1681526020019081526020016000208381548110611f0e57611f0d613223565b5b9060005260206000200154905080600660008773ffffffffffffffffffffffffffffffffffffffff1673ffffffffffffffffffffffffffffffffffffffff1681526020019081526020016000208381548110611f6d57611f6c613223565b5b9060005260206000200181905550816007600083815260200190815260200160002081905550505b600660008573ffffffffffffffffffffffffffffffffffffffff1673ffffffffffffffffffffffffffffffffffffffff1681526020019081526020016000208281548110611fe657611fe5613223565b5b906000526020600020016000905550505050565b600660008373ffffffffffffffffffffffffffffffffffffffff1673ffffffffffffffffffffffffffffffffffffffff168152602001908152602001600020805490506007600083815260200190815260200160002081905550600660008373ffffffffffffffffffffffffffffffffffffffff1673ffffffffffffffffffffffffffffffffffffffff1681526020019081526020016000208190806001815401808255809150506001900390600052602060002001600090919091909150555050565b6120c781611a7c565b15612107576040517f08c379a00000000000000000000000000000000000000000000000000000000081526004016120fe9061399d565b60405180910390fd5b600073ffffffffffffffffffffffffffffffffffffffff168273ffffffffffffffffffffffffffffffffffffffff1603612176576040517f08c379a000000000000000000000000000000000000000000000000000000000815260040161216d90613a09565b60405180910390fd5b816002600083815260200190815260200160002060006101000a81548173ffffffffffffffffffffffffffffffffffffffff021916908373ffffffffffffffffffffffffffffffffffffffff16021790555061220f600460008473ffffffffffffffffffffffffffffffffffffffff1673ffffffffffffffffffffffffffffffffffffffff168152602001908152602001600020612337565b808273ffffffffffffffffffffffffffffffffffffffff16600073ffffffffffffffffffffffffffffffffffffffff167fddf252ad1be2c89b69c2b068fc378daa952ba7f163c4a11628f55a4df523b3ef60405160405180910390a45050565b6008805490506009600083815260200190815260200160002081905550600881908060018154018082558091505060019003906000526020600020016000909190919091505550565b6000808273ffffffffffffffffffffffffffffffffffffffff163b119050919050565b60008160000154905060008111612327576040517f08c379a000000000000000000000000000000000000000000000000000000000815260040161231e90613a75565b60405180910390fd5b6001810382600001819055505050565b6001816000016000828254019250508190555050565b82805461235990612e79565b90600052602060002090601f01602090048101928261237b57600085556123c2565b82601f1061239457805160ff19168380011785556123c2565b828001600101855582156123c2579182015b828111156123c15782518255916020019190600101906123a6565b5b5090506123cf91906123d3565b5090565b5b808211156123ec5760008160009055506001016123d4565b5090565b6000604051905090565b600080fd5b600080fd5b60007fffffffff0000000000000000000000000000000000000000000000000000000082169050919050565b61243981612404565b811461244457600080fd5b50565b60008135905061245681612430565b92915050565b600060208284031215612472576124716123fa565b5b600061248084828501612447565b91505092915050565b60008115159050919050565b61249e81612489565b82525050565b60006020820190506124b96000830184612495565b92915050565b6000819050919050565b6124d2816124bf565b81146124dd57600080fd5b50565b6000813590506124ef816124c9565b92915050565b60006020828403121561250b5761250a6123fa565b5b6000612519848285016124e0565b91505092915050565b600073ffffffffffffffffffffffffffffffffffffffff82169050919050565b600061254d82612522565b9050919050565b61255d81612542565b82525050565b60006020820190506125786000830184612554565b92915050565b61258781612542565b811461259257600080fd5b50565b6000813590506125a48161257e565b92915050565b600080604083850312156125c1576125c06123fa565b5b60006125cf85828601612595565b92505060206125e0858286016124e0565b9150509250929050565b600081519050919050565b600082825260208201905092915050565b60005b83811015612624578082015181840152602081019050612609565b83811115612633576000848401525b50505050565b6000601f19601f8301169050919050565b6000612655826125ea565b61265f81856125f5565b935061266f818560208601612606565b61267881612639565b840191505092915050565b6000602082019050818103600083015261269d818461264a565b905092915050565b6126ae816124bf565b82525050565b60006020820190506126c960008301846126a5565b92915050565b6000806000606084860312156126e8576126e76123fa565b5b60006126f686828701612595565b935050602061270786828701612595565b9250506040612718868287016124e0565b9150509250925092565b600080fd5b7f4e487b7100000000000000000000000000000000000000000000000000000000600052604160045260246000fd5b61275f82612639565b810181811067ffffffffffffffff8211171561277e5761277d612727565b5b80604052505050565b60006127916123f0565b905061279d8282612756565b919050565b6000604082840312156127b8576127b7612722565b5b6127c26040612787565b905060006127d2848285016124e0565b60008301525060206127e6848285016124e0565b60208301525092915050565b600080fd5b600067ffffffffffffffff82111561281257612811612727565b5b602082029050919050565b600080fd5b6000612835612830846127f7565b612787565b9050806020840283018581111561284f5761284e61281d565b5b835b81811015612878578061286488826124e0565b845260208401935050602081019050612851565b5050509392505050565b600082601f830112612897576128966127f2565b5b60026128a4848285612822565b91505092915050565b6000608082840312156128c3576128c2612722565b5b6128cd6040612787565b905060006128dd84828501612882565b60008301525060406128f184828501612882565b60208301525092915050565b6000610100828403121561291457612913612722565b5b61291e6060612787565b9050600061292e848285016127a2565b6000830152506040612942848285016128ad565b60208301525060c0612956848285016127a2565b60408301525092915050565b6000806000610160848603121561297c5761297b6123fa565b5b600061298a868287016124e0565b935050602061299b868287016128fd565b9250506101206129ad86828701612882565b9150509250925092565b600081519050919050565b600082825260208201905092915050565b6000819050602082019050919050565b6129ec816124bf565b82525050565b6129fb81612542565b82525050565b604082016000820151612a1760008501826129e3565b506020820151612a2a60208501826129f2565b50505050565b6000612a3c8383612a01565b60408301905092915050565b6000602082019050919050565b6000612a60826129b7565b612a6a81856129c2565b9350612a75836129d3565b8060005b83811015612aa6578151612a8d8882612a30565b9750612a9883612a48565b925050600181019050612a79565b5085935050505092915050565b60006020820190508181036000830152612acd8184612a55565b905092915050565b600060208284031215612aeb57612aea6123fa565b5b6000612af984828501612595565b91505092915050565b612b0b81612489565b8114612b1657600080fd5b50565b600081359050612b2881612b02565b92915050565b60008060408385031215612b4557612b446123fa565b5b6000612b5385828601612595565b9250506020612b6485828601612b19565b9150509250929050565b600080fd5b600067ffffffffffffffff821115612b8e57612b8d612727565b5b612b9782612639565b9050602081019050919050565b82818337600083830152505050565b6000612bc6612bc184612b73565b612787565b905082815260208101848484011115612be257612be1612b6e565b5b612bed848285612ba4565b509392505050565b600082601f830112612c0a57612c096127f2565b5b8135612c1a848260208601612bb3565b91505092915050565b60008060008060808587031215612c3d57612c3c6123fa565b5b6000612c4b87828801612595565b9450506020612c5c87828801612595565b9350506040612c6d878288016124e0565b925050606085013567ffffffffffffffff811115612c8e57612c8d6123ff565b5b612c9a87828801612bf5565b91505092959194509250565b60008060408385031215612cbd57612cbc6123fa565b5b6000612ccb858286016124e0565b9250506020612cdc85828601612595565b9150509250929050565b60008060408385031215612cfd57612cfc6123fa565b5b6000612d0b85828601612595565b9250506020612d1c85828601612595565b9150509250929050565b7f726571756972652074686520676976656e206164647265737320746f206e6f7460008201527f20626520746865206f776e6572206f662074686520746f6b656e496400000000602082015250565b6000612d82603c836125f5565b9150612d8d82612d26565b604082019050919050565b60006020820190508181036000830152612db181612d75565b9050919050565b7f6d73672073656e646572206e6f7420746865206f776e6572206f66207468652060008201527f636f6e7472616374206f72206e6f7420617070726f76656420666f7220616c6c602082015250565b6000612e146040836125f5565b9150612e1f82612db8565b604082019050919050565b60006020820190508181036000830152612e4381612e07565b9050919050565b7f4e487b7100000000000000000000000000000000000000000000000000000000600052602260045260246000fd5b60006002820490506001821680612e9157607f821691505b602082108103612ea457612ea3612e4a565b5b50919050565b7f4f776e6572206e6565647320746f20626520617070726f766564000000000000600082015250565b6000612ee0601a836125f5565b9150612eeb82612eaa565b602082019050919050565b60006020820190508181036000830152612f0f81612ed3565b9050919050565b7f536f6c7574696f6e20686173206265656e2075736564206265666f7265000000600082015250565b6000612f4c601d836125f5565b9150612f5782612f16565b602082019050919050565b60006020820190508181036000830152612f7b81612f3f565b9050919050565b604082016000820151612f9860008501826129e3565b506020820151612fab60208501826129e3565b50505050565b600060029050919050565b600081905092915050565b6000819050919050565b6000612fdd83836129e3565b60208301905092915050565b6000602082019050919050565b612fff81612fb1565b6130098184612fbc565b925061301482612fc7565b8060005b8381101561304557815161302c8782612fd1565b965061303783612fe9565b925050600181019050613018565b505050505050565b6080820160008201516130636000850182612ff6565b5060208201516130766040850182612ff6565b50505050565b610100820160008201516130936000850182612f82565b5060208201516130a6604085018261304d565b5060408201516130b960c0850182612f82565b50505050565b600081905092915050565b6130d381612fb1565b6130dd81846130bf565b92506130e882612fc7565b8060005b838110156131195781516131008782612fd1565b965061310b83612fe9565b9250506001810190506130ec565b505050505050565b600061014082019050613137600083018561307c565b6131456101008301846130ca565b9392505050565b60008151905061315b81612b02565b92915050565b600060208284031215613177576131766123fa565b5b60006131858482850161314c565b91505092915050565b7f547820636f756c64206e6f742062652076657269666965642e00000000000000600082015250565b60006131c46019836125f5565b91506131cf8261318e565b602082019050919050565b600060208201905081810360008301526131f3816131b7565b9050919050565b600060408201905061320f60008301856126a5565b61321c6020830184612554565b9392505050565b7f4e487b7100000000000000000000000000000000000000000000000000000000600052603260045260246000fd5b7f4f776e61626c653a2063616c6c6572206973206e6f7420746865206f776e6572600082015250565b60006132886020836125f5565b915061329382613252565b602082019050919050565b600060208201905081810360008301526132b78161327b565b9050919050565b7f436f6e7472616374207061757365640000000000000000000000000000000000600082015250565b60006132f4600f836125f5565b91506132ff826132be565b602082019050919050565b60006020820190508181036000830152613323816132e7565b9050919050565b7f436f6e7472616374206e6f742070617573656400000000000000000000000000600082015250565b60006133606013836125f5565b915061336b8261332a565b602082019050919050565b6000602082019050818103600083015261338f81613353565b9050919050565b7f746f206e6f74206d73672e73656e646572000000000000000000000000000000600082015250565b60006133cc6011836125f5565b91506133d782613396565b602082019050919050565b600060208201905081810360008301526133fb816133bf565b9050919050565b7f546f6b656e20696420646f6573206e6f74206578697374000000000000000000600082015250565b60006134386017836125f5565b915061344382613402565b602082019050919050565b600060208201905081810360008301526134678161342b565b9050919050565b600067ffffffffffffffff82111561348957613488612727565b5b61349282612639565b9050602081019050919050565b60006134b26134ad8461346e565b612787565b9050828152602081018484840111156134ce576134cd612b6e565b5b6134d9848285612606565b509392505050565b600082601f8301126134f6576134f56127f2565b5b815161350684826020860161349f565b91505092915050565b600060208284031215613525576135246123fa565b5b600082015167ffffffffffffffff811115613543576135426123ff565b5b61354f848285016134e1565b91505092915050565b600081905092915050565b600061356e826125ea565b6135788185613558565b9350613588818560208601612606565b80840191505092915050565b60006135a08285613563565b91506135ac8284613563565b91508190509392505050565b7f4f776e61626c653a206e6577206f776e657220697320746865207a65726f206160008201527f6464726573730000000000000000000000000000000000000000000000000000602082015250565b60006136146026836125f5565b915061361f826135b8565b604082019050919050565b6000602082019050818103600083015261364381613607565b9050919050565b600081519050919050565b600082825260208201905092915050565b60006136718261364a565b61367b8185613655565b935061368b818560208601612606565b61369481612639565b840191505092915050565b60006080820190506136b46000830187612554565b6136c16020830186612554565b6136ce60408301856126a5565b81810360608301526136e08184613666565b905095945050505050565b6000815190506136fa81612430565b92915050565b600060208284031215613716576137156123fa565b5b6000613724848285016136eb565b91505092915050565b7f4e487b7100000000000000000000000000000000000000000000000000000000600052601160045260246000fd5b6000613767826124bf565b91507fffffffffffffffffffffffffffffffffffffffffffffffffffffffffffffffff82036137995761379861372d565b5b600182019050919050565b7f4e487b7100000000000000000000000000000000000000000000000000000000600052601260045260246000fd5b60006137de826124bf565b91506137e9836124bf565b9250826137f9576137f86137a4565b5b828204905092915050565b600061380f826124bf565b915061381a836124bf565b92508282101561382d5761382c61372d565b5b828203905092915050565b6000613843826124bf565b915061384e836124bf565b92508261385e5761385d6137a4565b5b828206905092915050565b6000613874826124bf565b915061387f836124bf565b9250827fffffffffffffffffffffffffffffffffffffffffffffffffffffffffffffffff038211156138b4576138b361372d565b5b828201905092915050565b7f66726f6d2061646472657373206973206e6f7420746865206f776e6572206f6660008201527f2074686520676976656e20746f6b656e00000000000000000000000000000000602082015250565b600061391b6030836125f5565b9150613926826138bf565b604082019050919050565b6000602082019050818103600083015261394a8161390e565b9050919050565b7f546f6b656e20494420616c726561647920657869737473000000000000000000600082015250565b60006139876017836125f5565b915061399282613951565b602082019050919050565b600060208201905081810360008301526139b68161397a565b9050919050565b7f6e6f7420616c6c6f77656420746f206d696e7420746f20302061646472657373600082015250565b60006139f36020836125f5565b91506139fe826139bd565b602082019050919050565b60006020820190508181036000830152613a22816139e6565b9050919050565b7f436f756e7465723a2064656372656d656e74206f766572666c6f770000000000600082015250565b6000613a5f601b836125f5565b9150613a6a82613a29565b602082019050919050565b60006020820190508181036000830152613a8e81613a52565b905091905056fea26469706673582212209e93e7b003a1547168587abbbf09892415bf18b9d8e99b82547ba95b53815c0564736f6c634300080d0033608060405234801561001057600080fd5b506114ad806100206000396000f3fe608060405234801561001057600080fd5b506004361061002b5760003560e01c806343cd76fc14610030575b600080fd5b61004a60048036038101906100459190611215565b610060565b6040516100579190611272565b60405180910390f35b600080600267ffffffffffffffff81111561007e5761007d610fa4565b5b6040519080825280602002602001820160405280156100ac5781602001602082028036833780820191505090505b50905060005b6002811015610105578381600281106100ce576100cd61128d565b5b60200201518282815181106100e6576100e561128d565b5b60200260200101818152505080806100fd906112eb565b9150506100b2565b506000610112828661012d565b03610121576001915050610127565b60009150505b92915050565b6000807f30644e72e131a029b85045b68181585d2833e84879b9709143e1f593f00000019050600061015d6102c4565b9050806080015151600186516101739190611333565b1461017d57600080fd5b60006040518060400160405280600081526020016000815250905060005b865181101561023657838782815181106101b8576101b761128d565b5b6020026020010151106101ca57600080fd5b6102218261021c85608001516001856101e39190611333565b815181106101f4576101f361128d565b5b60200260200101518a858151811061020f5761020e61128d565b5b602002602001015161073e565b6107e0565b9150808061022e906112eb565b91505061019b565b506102608183608001516000815181106102535761025261128d565b5b60200260200101516107e0565b90506102a685600001518660200151610278846108a8565b856040015161028a8a604001516108a8565b876060015161029c89600001516108a8565b896020015161094d565b6102b657600193505050506102be565b600093505050505b92915050565b6102cc610e70565b60405180604001604052807f17c61eec33e6197a99eb3a47f428b40949a21fc250141df59f4bf5abcbf7e87181526020017f20578bdb87ac4d801ecca9f2a0c0a79fc2451a4daae8a3b2398ab1273d2512388152508160000181905250604051806040016040528060405180604001604052807f196547fe1316617b23671de75a6fee85d023f030248045849e87452fbf1e9cc881526020017f0e4ea7851147b5352bbf96acd0189da8d0d967ea81b27be0044ea25f2724cd1c815250815260200160405180604001604052807f30561112e10cad5a340267d2ee9415b95c403b2bf69bed0e62c7c4326f6a601681526020017f19db4d64fc6a496adb7a38b4babf8ad33892464dc56556d9b765b0fddf4979318152508152508160200181905250604051806040016040528060405180604001604052807f1bc9b6f6155d5ccb372422c8bcba50a76a1537cc569581847b1347d1db77cb5381526020017f2dc4a25953a586d3adc98dc4431bf1a505696ecdcfa36c50acb9434dae8b59c7815250815260200160405180604001604052807f14e8082fe2a000175d3a2dd977d60e55c8467fd105e4f6711d1922b329fea5ea81526020017e9b6045f867ffda7a35f4532417bcce45be741c4e0ce8a7acf63651d02ef8518152508152508160400181905250604051806040016040528060405180604001604052807e5ecae967393719db65354ca43f9e0826db1971dba51452fb766fe15b31cfef81526020017f1418ee4f0668e77f07640bb591307794ffa04f351cda847c6fbb090629e673a6815250815260200160405180604001604052807f08ddc7019c9187f0d52b631e195b2712364d9eb0e29f891e4721fa1bf587473681526020017f0bb97106debda59d2fd521debc56f0dacd3af314e9229c71ab0f224dd16a8bba8152508152508160600181905250600367ffffffffffffffff81111561059157610590610fa4565b5b6040519080825280602002602001820160405280156105ca57816020015b6105b7610eb7565b8152602001906001900390816105af5790505b50816080018190525060405180604001604052807f284b79ac696346d08adb0b1a11a97aaf08881a6fb215f4d3934bdc8e49f68a8181526020017f28a2874ffbc76d4ae1b446761527632168365454c707082da5ccc077819a529281525081608001516000815181106106405761063f61128d565b5b602002602001018190525060405180604001604052807f1b154cb1af417a3b0a431f19e9735097f70313050d6241ed87fcee17b75d15b881526020017f23567003b9c9ae94d348441783321c5c825c4cf37ccb86ea7e2c85fac439268881525081608001516001815181106106b8576106b761128d565b5b602002602001018190525060405180604001604052807f1b98aade4c12a04450cc46f59fb8ebfe147d2f51bb287dce4f755e1d74bc0f3e81526020017f094400b4eff16f3395528e34598a026bd7b9849afb93bd5bdad5d8e891d2bbbf81525081608001516002815181106107305761072f61128d565b5b602002602001018190525090565b610746610eb7565b61074e610ed1565b8360000151816000600381106107675761076661128d565b5b6020020181815250508360200151816001600381106107895761078861128d565b5b60200201818152505082816002600381106107a7576107a661128d565b5b602002018181525050600060608360808460076107d05a03fa905080600081036107cd57fe5b50806107d857600080fd5b505092915050565b6107e8610eb7565b6107f0610ef3565b8360000151816000600481106108095761080861128d565b5b60200201818152505083602001518160016004811061082b5761082a61128d565b5b60200201818152505082600001518160026004811061084d5761084c61128d565b5b60200201818152505082602001518160036004811061086f5761086e61128d565b5b602002018181525050600060608360c08460066107d05a03fa9050806000810361089557fe5b50806108a057600080fd5b505092915050565b6108b0610eb7565b60007f30644e72e131a029b85045b68181585d97816a916871ca8d3c208c16d87cfd479050600083600001511480156108ed575060008360200151145b15610911576040518060400160405280600081526020016000815250915050610948565b60405180604001604052808460000151815260200182856020015161093691906113b8565b8361094191906113e9565b8152509150505b919050565b600080600467ffffffffffffffff81111561096b5761096a610fa4565b5b6040519080825280602002602001820160405280156109a457816020015b610991610eb7565b8152602001906001900390816109895790505b5090506000600467ffffffffffffffff8111156109c4576109c3610fa4565b5b6040519080825280602002602001820160405280156109fd57816020015b6109ea610f15565b8152602001906001900390816109e25790505b5090508a82600081518110610a1557610a1461128d565b5b60200260200101819052508882600181518110610a3557610a3461128d565b5b60200260200101819052508682600281518110610a5557610a5461128d565b5b60200260200101819052508482600381518110610a7557610a7461128d565b5b60200260200101819052508981600081518110610a9557610a9461128d565b5b60200260200101819052508781600181518110610ab557610ab461128d565b5b60200260200101819052508581600281518110610ad557610ad461128d565b5b60200260200101819052508381600381518110610af557610af461128d565b5b6020026020010181905250610b0a8282610b1a565b9250505098975050505050505050565b60008151835114610b2a57600080fd5b6000835190506000600682610b3f919061141d565b905060008167ffffffffffffffff811115610b5d57610b5c610fa4565b5b604051908082528060200260200182016040528015610b8b5781602001602082028036833780820191505090505b50905060005b83811015610e1057868181518110610bac57610bab61128d565b5b602002602001015160000151826000600684610bc8919061141d565b610bd29190611333565b81518110610be357610be261128d565b5b602002602001018181525050868181518110610c0257610c0161128d565b5b602002602001015160200151826001600684610c1e919061141d565b610c289190611333565b81518110610c3957610c3861128d565b5b602002602001018181525050858181518110610c5857610c5761128d565b5b602002602001015160000151600160028110610c7757610c7661128d565b5b6020020151826002600684610c8c919061141d565b610c969190611333565b81518110610ca757610ca661128d565b5b602002602001018181525050858181518110610cc657610cc561128d565b5b602002602001015160000151600060028110610ce557610ce461128d565b5b6020020151826003600684610cfa919061141d565b610d049190611333565b81518110610d1557610d1461128d565b5b602002602001018181525050858181518110610d3457610d3361128d565b5b602002602001015160200151600160028110610d5357610d5261128d565b5b6020020151826004600684610d68919061141d565b610d729190611333565b81518110610d8357610d8261128d565b5b602002602001018181525050858181518110610da257610da161128d565b5b602002602001015160200151600060028110610dc157610dc061128d565b5b6020020151826005600684610dd6919061141d565b610de09190611333565b81518110610df157610df061128d565b5b6020026020010181815250508080610e08906112eb565b915050610b91565b50610e19610f3b565b6000602082602086026020860160086107d05a03fa90508060008103610e3b57fe5b5080610e4657600080fd5b600082600060018110610e5c57610e5b61128d565b5b602002015114159550505050505092915050565b6040518060a00160405280610e83610eb7565b8152602001610e90610f15565b8152602001610e9d610f15565b8152602001610eaa610f15565b8152602001606081525090565b604051806040016040528060008152602001600081525090565b6040518060600160405280600390602082028036833780820191505090505090565b6040518060800160405280600490602082028036833780820191505090505090565b6040518060400160405280610f28610f5d565b8152602001610f35610f5d565b81525090565b6040518060200160405280600190602082028036833780820191505090505090565b6040518060400160405280600290602082028036833780820191505090505090565b6000604051905090565b600080fd5b600080fd5b6000601f19601f8301169050919050565b7f4e487b7100000000000000000000000000000000000000000000000000000000600052604160045260246000fd5b610fdc82610f93565b810181811067ffffffffffffffff82111715610ffb57610ffa610fa4565b5b80604052505050565b600061100e610f7f565b905061101a8282610fd3565b919050565b6000819050919050565b6110328161101f565b811461103d57600080fd5b50565b60008135905061104f81611029565b92915050565b60006040828403121561106b5761106a610f8e565b5b6110756040611004565b9050600061108584828501611040565b600083015250602061109984828501611040565b60208301525092915050565b600080fd5b600067ffffffffffffffff8211156110c5576110c4610fa4565b5b602082029050919050565b600080fd5b60006110e86110e3846110aa565b611004565b90508060208402830185811115611102576111016110d0565b5b835b8181101561112b57806111178882611040565b845260208401935050602081019050611104565b5050509392505050565b600082601f83011261114a576111496110a5565b5b60026111578482856110d5565b91505092915050565b60006080828403121561117657611175610f8e565b5b6111806040611004565b9050600061119084828501611135565b60008301525060406111a484828501611135565b60208301525092915050565b600061010082840312156111c7576111c6610f8e565b5b6111d16060611004565b905060006111e184828501611055565b60008301525060406111f584828501611160565b60208301525060c061120984828501611055565b60408301525092915050565b600080610140838503121561122d5761122c610f89565b5b600061123b858286016111b0565b92505061010061124d85828601611135565b9150509250929050565b60008115159050919050565b61126c81611257565b82525050565b60006020820190506112876000830184611263565b92915050565b7f4e487b7100000000000000000000000000000000000000000000000000000000600052603260045260246000fd5b7f4e487b7100000000000000000000000000000000000000000000000000000000600052601160045260246000fd5b60006112f68261101f565b91507fffffffffffffffffffffffffffffffffffffffffffffffffffffffffffffffff8203611328576113276112bc565b5b600182019050919050565b600061133e8261101f565b91506113498361101f565b9250827fffffffffffffffffffffffffffffffffffffffffffffffffffffffffffffffff0382111561137e5761137d6112bc565b5b828201905092915050565b7f4e487b7100000000000000000000000000000000000000000000000000000000600052601260045260246000fd5b60006113c38261101f565b91506113ce8361101f565b9250826113de576113dd611389565b5b828206905092915050565b60006113f48261101f565b91506113ff8361101f565b925082821015611412576114116112bc565b5b828203905092915050565b60006114288261101f565b91506114338361101f565b9250817fffffffffffffffffffffffffffffffffffffffffffffffffffffffffffffffff048311821515161561146c5761146b6112bc565b5b82820290509291505056fea264697066735822122088f840a257601ab84c08cc9f8f34e502d397965b9716102dcb3336b87965706864736f6c634300080d003368747470733a2f2f73332d75732d776573742d322e616d617a6f6e6177732e636f6d2f756461636974792d626c6f636b636861696e2f63617073746f6e652f",
  "immutableReferences": {},
  "source": "pragma solidity 0.8.13;\n\nimport './ERC721Mintable.sol';\nimport './Verifier.sol';\n\n\ncontract SolnSquareVerifier is CustomERC721Token{\n\n    Verifier verifier;\n\n    struct Solution {\n                        uint256 index;\n                        address addressSolution;\n                        }\n    \n    Solution[] solutions;\n\n    mapping(uint256 => Solution) uniqueSolutions;\n\n\n    event SolutionAdded(uint256 index, address addressSolution);\n\n\n    constructor() {\n        verifier = new Verifier();\n    }\n\n\n\n\n    function addSolution(uint256 index, address addressSolution) external {\n        Solution memory solution = Solution(index, addressSolution);\n        solutions.push(solution);\n        uniqueSolutions[index] = solution;\n\n        emit SolutionAdded(index, addressSolution);\n    }\n\n    function getSolutions() public view returns(Solution[] memory){\n        return solutions;\n    }\n\n    function mintNFT(\n                        uint256 tokenIndex,\n                        Verifier.Proof memory proof, \n                        uint256[2] memory input\n                    )\n                    public\n    {\n        require(uniqueSolutions[tokenIndex].addressSolution == address(0), \"Solution has been used before\");\n        bool verificationResult = verifier.verifyTx(proof, input);\n        require(verificationResult, \"Tx could not be verified.\");\n\n        this.addSolution(tokenIndex, msg.sender);\n        _mint(msg.sender, tokenIndex);\n    }\n}\n    \n\n\n\n\n\n\n\n\n\n\n\n\n  \n\n\n\n\n\n\n\n\n\n\n\n\n\n\n\n\n\n\n\n\n\n\n\n\n\n\n",
  "sourcePath": "/Users/alex/Documents/udacity-blockchain-engineer/Blockchain-Capstone-master/eth-contracts/contracts/SolnSquareVerifier.sol",
  "compiler": {
    "name": "solc",
    "version": "0.8.13+commit.abaa5c0e.Emscripten.clang"
  },
  "schemaVersion": "3.4.7",
  "updatedAt": "2022-04-26T23:47:51.861Z",
  "networkType": "ethereum",
  "devdoc": {
    "kind": "dev",
    "methods": {
      "isApprovedForAll(address,address)": {
        "details": "Tells whether an operator is approved by a given owner",
        "params": {
          "operator": "operator address which you want to query the approval of",
          "owner": "owner address which you want to query the approval of"
        },
        "returns": {
          "_0": "bool whether the given operator is approved by the given owner"
        }
      },
      "owner()": {
        "details": "Returns the address of the current owner."
      },
      "renounceOwnership()": {
        "details": "Leaves the contract without owner. It will not be possible to call `onlyOwner` functions anymore. Can only be called by the current owner. NOTE: Renouncing ownership will leave the contract without an owner, thereby removing any functionality that is only available to the owner."
      },
      "setApprovalForAll(address,bool)": {
        "details": "Sets or unsets the approval of a given operator An operator is allowed to transfer all tokens of the sender on their behalf",
        "params": {
          "approved": "representing the status of the approval to be set",
          "to": "operator address to set the approval"
        }
      },
      "supportsInterface(bytes4)": {
        "details": "implement supportsInterface(bytes4) using a lookup table"
      },
      "tokenByIndex(uint256)": {
        "details": "Gets the token ID at a given index of all the tokens in this contract Reverts if the index is greater or equal to the total number of tokens",
        "params": {
          "index": "uint256 representing the index to be accessed of the tokens list"
        },
        "returns": {
          "_0": "uint256 token ID at the given index of the tokens list"
        }
      },
      "tokenOfOwnerByIndex(address,uint256)": {
        "details": "Gets the token ID at a given index of the tokens list of the requested owner",
        "params": {
          "index": "uint256 representing the index to be accessed of the requested tokens list",
          "owner": "address owning the tokens list to be accessed"
        },
        "returns": {
          "_0": "uint256 token ID at the given index of the tokens list owned by the requested address"
        }
      },
      "totalSupply()": {
        "details": "Gets the total amount of tokens stored by the contract",
        "returns": {
          "_0": "uint256 representing the total amount of tokens"
        }
      },
      "transferOwnership(address)": {
        "details": "Transfers ownership of the contract to a new account (`newOwner`). Can only be called by the current owner."
      }
    },
    "version": 1
  },
  "userdoc": {
    "kind": "user",
    "methods": {},
    "version": 1
  }
}